{
  "transactions": [
    {
      "hash": "0x603ea9c2393a7d6ada7bc2b06718634a19415e9b40345482479c87b364b830b0",
      "transactionType": "CREATE",
      "contractName": "WrappedTokenAdapter",
      "contractAddress": "0x1508f1b71210593406f8b614dcc41cdf3e6d2a6d",
      "function": null,
      "arguments": [
        "0x33EB4dEa4931e5d607531Fb08Bd393944aA01Faa",
        "0xE314ae9D279919a00d4773cCe37946A98fADDaBc"
      ],
      "transaction": {
        "from": "0x33eb4dea4931e5d607531fb08bd393944aa01faa",
        "gas": "0x124448",
        "value": "0x0",
        "input": "0x60806040523480156200001157600080fd5b506040516200104f3803806200104f833981016040819052620000349162000143565b620000607f724f6a44d576143e18c60911798b2b15551ca96bd8f7cb7524b8fa36253a26d88262000077565b506200006e60008362000077565b5050506200017b565b6000828152602081815260408083206001600160a01b038516845290915281205460ff166200011c576000838152602081815260408083206001600160a01b03861684529091529020805460ff19166001179055620000d33390565b6001600160a01b0316826001600160a01b0316847f2f8788117e7eff1d82e926ec794901d17c78024a50270940304540a733656f0d60405160405180910390a450600162000120565b5060005b92915050565b80516001600160a01b03811681146200013e57600080fd5b919050565b600080604083850312156200015757600080fd5b620001628362000126565b9150620001726020840162000126565b90509250929050565b610ec4806200018b6000396000f3fe608060405234801561001057600080fd5b50600436106100df5760003560e01c80638464297b1161008c578063b5d9279111610066578063b5d927911461023d578063d547741f14610250578063df668eca14610263578063ec87621c1461028a57600080fd5b80638464297b1461018b57806391d14854146101f1578063a217fddf1461023557600080fd5b8063248a9ca3116100bd578063248a9ca3146101425780632f2ff15d1461016557806336568abe1461017857600080fd5b806301ffc9a7146100e4578063021dc8de1461010c578063174d2aee14610121575b600080fd5b6100f76100f2366004610ccf565b6102b1565b60405190151581526020015b60405180910390f35b61011f61011a366004610d3a565b61034a565b005b61013461012f366004610d85565b6104cd565b604051908152602001610103565b610134610150366004610dd8565b60009081526020819052604090206001015490565b61011f610173366004610df1565b61089c565b61011f610186366004610df1565b6108c7565b6101cc610199366004610e21565b600160209081526000928352604080842090915290825290205473ffffffffffffffffffffffffffffffffffffffff1681565b60405173ffffffffffffffffffffffffffffffffffffffff9091168152602001610103565b6100f76101ff366004610df1565b60009182526020828152604080842073ffffffffffffffffffffffffffffffffffffffff93909316845291905290205460ff1690565b610134600081565b61011f61024b366004610e21565b610925565b61011f61025e366004610df1565b610959565b6101347f724f6a44d576143e18c60911798b2b15551ca96bd8f7cb7524b8fa36253a26d881565b6101347f241ecf16d79d0f8dbfb92cbc07fe17840425976cf0667f022fe9877caa831b0881565b60007fffffffff0000000000000000000000000000000000000000000000000000000082167f7965db0b00000000000000000000000000000000000000000000000000000000148061034457507f01ffc9a7000000000000000000000000000000000000000000000000000000007fffffffff000000000000000000000000000000000000000000000000000000008316145b92915050565b7f241ecf16d79d0f8dbfb92cbc07fe17840425976cf0667f022fe9877caa831b086103748161097e565b73ffffffffffffffffffffffffffffffffffffffff8481166000908152600160209081526040808320878516845290915290205416156103b8576103b8848461098b565b73ffffffffffffffffffffffffffffffffffffffff84811660008181526001602081815260408084208987168086529083528185208054978a167fffffffffffffffffffffffff000000000000000000000000000000000000000098891681179091559383528185208686528352938190208054909616831790955584519384528301919091528183015290517f988b467c8b46ba8a6353c7cc3fb4c8b1909fc087a185dbea36ea030d95a265fa9181900360600190a16040805173ffffffffffffffffffffffffffffffffffffffff8581168252868116602083015284168183015290517f988b467c8b46ba8a6353c7cc3fb4c8b1909fc087a185dbea36ea030d95a265fa9181900360600190a150505050565b60007f724f6a44d576143e18c60911798b2b15551ca96bd8f7cb7524b8fa36253a26d86104f98161097e565b6040517f23b872dd0000000000000000000000000000000000000000000000000000000081523360048201523060248201526044810185905273ffffffffffffffffffffffffffffffffffffffff8716906323b872dd906064016020604051808303816000875af1158015610572573d6000803e3d6000fd5b505050506040513d601f19601f820116820180604052508101906105969190610e4f565b5073ffffffffffffffffffffffffffffffffffffffff86811660008181526001602090815260408083208a86168452909152908190205490517f095ea7b3000000000000000000000000000000000000000000000000000000008152921660048301819052602483018790529163095ea7b3906044016020604051808303816000875af115801561062b573d6000803e3d6000fd5b505050506040513d601f19601f8201168201806040525081019061064f9190610e4f565b508573ffffffffffffffffffffffffffffffffffffffff168173ffffffffffffffffffffffffffffffffffffffff16636f307dc36040518163ffffffff1660e01b8152600401602060405180830381865afa1580156106b2573d6000803e3d6000fd5b505050506040513d601f19601f820116820180604052508101906106d69190610e71565b73ffffffffffffffffffffffffffffffffffffffff1603610776576040517f2e1a7d4d0000000000000000000000000000000000000000000000000000000081526004810186905273ffffffffffffffffffffffffffffffffffffffff821690632e1a7d4d90602401600060405180830381600087803b15801561075957600080fd5b505af115801561076d573d6000803e3d6000fd5b505050506107f7565b6040517fb6b55f250000000000000000000000000000000000000000000000000000000081526004810186905273ffffffffffffffffffffffffffffffffffffffff82169063b6b55f2590602401600060405180830381600087803b1580156107de57600080fd5b505af11580156107f2573d6000803e3d6000fd5b505050505b6040517fa9059cbb00000000000000000000000000000000000000000000000000000000815273ffffffffffffffffffffffffffffffffffffffff85811660048301526024820187905287169063a9059cbb906044016020604051808303816000875af115801561086c573d6000803e3d6000fd5b505050506040513d601f19601f820116820180604052508101906108909190610e4f565b50939695505050505050565b6000828152602081905260409020600101546108b78161097e565b6108c18383610a8a565b50505050565b73ffffffffffffffffffffffffffffffffffffffff81163314610916576040517f6697b23200000000000000000000000000000000000000000000000000000000815260040160405180910390fd5b6109208282610b86565b505050565b7f241ecf16d79d0f8dbfb92cbc07fe17840425976cf0667f022fe9877caa831b0861094f8161097e565b610920838361098b565b6000828152602081905260409020600101546109748161097e565b6108c18383610b86565b6109888133610c41565b50565b73ffffffffffffffffffffffffffffffffffffffff828116600081815260016020818152604080842095871680855295825280842080547fffffffffffffffffffffffff0000000000000000000000000000000000000000908116909155928252808420858552825292839020805490921690915581519283528201929092527f2d9df8a2f70fd0c98a51ffa174e99d646a7dff781869d74e9bbdbb9d7f35cd6c910160405180910390a16040805173ffffffffffffffffffffffffffffffffffffffff8084168252841660208201527f2d9df8a2f70fd0c98a51ffa174e99d646a7dff781869d74e9bbdbb9d7f35cd6c910160405180910390a15050565b60008281526020818152604080832073ffffffffffffffffffffffffffffffffffffffff8516845290915281205460ff16610b7e5760008381526020818152604080832073ffffffffffffffffffffffffffffffffffffffff86168452909152902080547fffffffffffffffffffffffffffffffffffffffffffffffffffffffffffffff00166001179055610b1c3390565b73ffffffffffffffffffffffffffffffffffffffff168273ffffffffffffffffffffffffffffffffffffffff16847f2f8788117e7eff1d82e926ec794901d17c78024a50270940304540a733656f0d60405160405180910390a4506001610344565b506000610344565b60008281526020818152604080832073ffffffffffffffffffffffffffffffffffffffff8516845290915281205460ff1615610b7e5760008381526020818152604080832073ffffffffffffffffffffffffffffffffffffffff8616808552925280832080547fffffffffffffffffffffffffffffffffffffffffffffffffffffffffffffff0016905551339286917ff6391f5c32d9c69d2a47ea670b442974b53935d1edc7fd64eb21e047a839171b9190a4506001610344565b60008281526020818152604080832073ffffffffffffffffffffffffffffffffffffffff8516845290915290205460ff16610ccb576040517fe2517d3f00000000000000000000000000000000000000000000000000000000815273ffffffffffffffffffffffffffffffffffffffff821660048201526024810183905260440160405180910390fd5b5050565b600060208284031215610ce157600080fd5b81357fffffffff0000000000000000000000000000000000000000000000000000000081168114610d1157600080fd5b9392505050565b73ffffffffffffffffffffffffffffffffffffffff8116811461098857600080fd5b600080600060608486031215610d4f57600080fd5b8335610d5a81610d18565b92506020840135610d6a81610d18565b91506040840135610d7a81610d18565b809150509250925092565b60008060008060808587031215610d9b57600080fd5b8435610da681610d18565b93506020850135610db681610d18565b9250604085013591506060850135610dcd81610d18565b939692955090935050565b600060208284031215610dea57600080fd5b5035919050565b60008060408385031215610e0457600080fd5b823591506020830135610e1681610d18565b809150509250929050565b60008060408385031215610e3457600080fd5b8235610e3f81610d18565b91506020830135610e1681610d18565b600060208284031215610e6157600080fd5b81518015158114610d1157600080fd5b600060208284031215610e8357600080fd5b8151610d1181610d1856fea264697066735822122010bb50bb88a0098e7f00e3a1cad01f28f1e679049ab1de40dc228809c6d5c60464736f6c6343000815003300000000000000000000000033eb4dea4931e5d607531fb08bd393944aa01faa000000000000000000000000e314ae9d279919a00d4773cce37946a98faddabc",
        "nonce": "0x317",
        "chainId": "0x2105"
      },
      "additionalContracts": [],
      "isFixedGasLimit": false
    },
    {
      "hash": "0x6d1d746685aa738b6bad7ccb50f5e8f81ab676c2bf666efa506aa3ca0bfce484",
      "transactionType": "CALL",
      "contractName": "WrappedTokenAdapter",
      "contractAddress": "0x1508f1b71210593406f8b614dcc41cdf3e6d2a6d",
      "function": "grantRole(bytes32,address)",
      "arguments": [
        "0x241ecf16d79d0f8dbfb92cbc07fe17840425976cf0667f022fe9877caa831b08",
        "0x33EB4dEa4931e5d607531Fb08Bd393944aA01Faa"
      ],
      "transaction": {
        "from": "0x33eb4dea4931e5d607531fb08bd393944aa01faa",
        "to": "0x1508f1b71210593406f8b614dcc41cdf3e6d2a6d",
        "gas": "0x114f9",
        "value": "0x0",
        "input": "0x2f2ff15d241ecf16d79d0f8dbfb92cbc07fe17840425976cf0667f022fe9877caa831b0800000000000000000000000033eb4dea4931e5d607531fb08bd393944aa01faa",
        "nonce": "0x318",
        "chainId": "0x2105"
      },
      "additionalContracts": [],
      "isFixedGasLimit": false
    },
    {
      "hash": "0xa7f8397283e59846a51975b53ecfc973a5c88d25ef4b0edb66d3f152956ffcc4",
      "transactionType": "CALL",
      "contractName": "WrappedTokenAdapter",
      "contractAddress": "0x1508f1b71210593406f8b614dcc41cdf3e6d2a6d",
      "function": "grantRole(bytes32,address)",
      "arguments": [
        "0x241ecf16d79d0f8dbfb92cbc07fe17840425976cf0667f022fe9877caa831b08",
        "0x639d2dD24304aC2e6A691d8c1cFf4a2665925fee"
      ],
      "transaction": {
        "from": "0x33eb4dea4931e5d607531fb08bd393944aa01faa",
        "to": "0x1508f1b71210593406f8b614dcc41cdf3e6d2a6d",
        "gas": "0x114f9",
        "value": "0x0",
        "input": "0x2f2ff15d241ecf16d79d0f8dbfb92cbc07fe17840425976cf0667f022fe9877caa831b08000000000000000000000000639d2dd24304ac2e6a691d8c1cff4a2665925fee",
        "nonce": "0x319",
        "chainId": "0x2105"
      },
      "additionalContracts": [],
      "isFixedGasLimit": false
    },
    {
      "hash": "0x869467a0b45b0ef8790e5277fe9d050339660b7edec84b63b6a45c77672a810b",
      "transactionType": "CALL",
      "contractName": "WrappedTokenAdapter",
      "contractAddress": "0x1508f1b71210593406f8b614dcc41cdf3e6d2a6d",
      "function": "grantRole(bytes32,address)",
      "arguments": [
        "0x241ecf16d79d0f8dbfb92cbc07fe17840425976cf0667f022fe9877caa831b08",
        "0xA1b5f2cc9B407177CD8a4ACF1699fa0b99955A22"
      ],
      "transaction": {
        "from": "0x33eb4dea4931e5d607531fb08bd393944aa01faa",
        "to": "0x1508f1b71210593406f8b614dcc41cdf3e6d2a6d",
        "gas": "0x114f9",
        "value": "0x0",
        "input": "0x2f2ff15d241ecf16d79d0f8dbfb92cbc07fe17840425976cf0667f022fe9877caa831b08000000000000000000000000a1b5f2cc9b407177cd8a4acf1699fa0b99955a22",
        "nonce": "0x31a",
        "chainId": "0x2105"
      },
      "additionalContracts": [],
      "isFixedGasLimit": false
    },
    {
      "hash": "0x3b5e807448ef4ead04b0280dbe08dff97f598c3f983d3280da7f3705f3e5d913",
      "transactionType": "CALL",
      "contractName": "WrappedTokenAdapter",
      "contractAddress": "0x1508f1b71210593406f8b614dcc41cdf3e6d2a6d",
      "function": "grantRole(bytes32,address)",
      "arguments": [
        "0x0000000000000000000000000000000000000000000000000000000000000000",
        "0x639d2dD24304aC2e6A691d8c1cFf4a2665925fee"
      ],
      "transaction": {
        "from": "0x33eb4dea4931e5d607531fb08bd393944aa01faa",
        "to": "0x1508f1b71210593406f8b614dcc41cdf3e6d2a6d",
        "gas": "0x112e7",
        "value": "0x0",
        "input": "0x2f2ff15d0000000000000000000000000000000000000000000000000000000000000000000000000000000000000000639d2dd24304ac2e6a691d8c1cff4a2665925fee",
        "nonce": "0x31b",
        "chainId": "0x2105"
      },
      "additionalContracts": [],
      "isFixedGasLimit": false
    },
    {
      "hash": "0x8e0dd157dbe03238877b7bf9a411fb5d001d06e85f5c0c4adc32368458b791dc",
      "transactionType": "CALL",
      "contractName": "WrappedTokenAdapter",
      "contractAddress": "0x1508f1b71210593406f8b614dcc41cdf3e6d2a6d",
      "function": "grantRole(bytes32,address)",
      "arguments": [
        "0x0000000000000000000000000000000000000000000000000000000000000000",
        "0xA1b5f2cc9B407177CD8a4ACF1699fa0b99955A22"
      ],
      "transaction": {
        "from": "0x33eb4dea4931e5d607531fb08bd393944aa01faa",
        "to": "0x1508f1b71210593406f8b614dcc41cdf3e6d2a6d",
        "gas": "0x112e7",
        "value": "0x0",
        "input": "0x2f2ff15d0000000000000000000000000000000000000000000000000000000000000000000000000000000000000000a1b5f2cc9b407177cd8a4acf1699fa0b99955a22",
        "nonce": "0x31c",
        "chainId": "0x2105"
      },
      "additionalContracts": [],
      "isFixedGasLimit": false
    },
    {
      "hash": "0x272cd14be41b6783e218a0ba525603cf7254691eda35b0bfee6d3b75e6be6f15",
      "transactionType": "CALL",
      "contractName": "WrappedTokenAdapter",
      "contractAddress": "0x1508f1b71210593406f8b614dcc41cdf3e6d2a6d",
      "function": "setWrapper(address,address,address)",
      "arguments": [
        "0xc1CBa3fCea344f92D9239c08C0568f6F2F0ee452",
        "0xc9ae3B5673341859D3aC55941D27C8Be4698C9e4",
        "0xc9ae3B5673341859D3aC55941D27C8Be4698C9e4"
      ],
      "transaction": {
        "from": "0x33eb4dea4931e5d607531fb08bd393944aa01faa",
        "to": "0x1508f1b71210593406f8b614dcc41cdf3e6d2a6d",
        "gas": "0x18a20",
        "value": "0x0",
        "input": "0x021dc8de000000000000000000000000c1cba3fcea344f92d9239c08c0568f6f2f0ee452000000000000000000000000c9ae3b5673341859d3ac55941d27c8be4698c9e4000000000000000000000000c9ae3b5673341859d3ac55941d27c8be4698c9e4",
        "nonce": "0x31d",
        "chainId": "0x2105"
      },
      "additionalContracts": [],
      "isFixedGasLimit": false
    },
    {
      "hash": "0x3454de5430e2ae7400949ca9f58d0a6ec963cd6233cb8fc889da22719c5cbf95",
      "transactionType": "CALL",
      "contractName": "WrappedTokenAdapter",
      "contractAddress": "0x1508f1b71210593406f8b614dcc41cdf3e6d2a6d",
      "function": "setWrapper(address,address,address)",
      "arguments": [
        "0x4200000000000000000000000000000000000006",
        "0x3e8707557D4aD25d6042f590bCF8A06071Da2c5F",
        "0x3e8707557D4aD25d6042f590bCF8A06071Da2c5F"
      ],
      "transaction": {
        "from": "0x33eb4dea4931e5d607531fb08bd393944aa01faa",
        "to": "0x1508f1b71210593406f8b614dcc41cdf3e6d2a6d",
        "gas": "0x188f7",
        "value": "0x0",
        "input": "0x021dc8de00000000000000000000000042000000000000000000000000000000000000060000000000000000000000003e8707557d4ad25d6042f590bcf8a06071da2c5f0000000000000000000000003e8707557d4ad25d6042f590bcf8a06071da2c5f",
        "nonce": "0x31e",
        "chainId": "0x2105"
      },
      "additionalContracts": [],
      "isFixedGasLimit": false
    },
    {
      "hash": "0x72cb31008ffbae5d720f7d4fd25a620c8eb0c890f6cb64f04dffac96bb80634b",
      "transactionType": "CALL",
      "contractName": "WrappedTokenAdapter",
      "contractAddress": "0x1508f1b71210593406f8b614dcc41cdf3e6d2a6d",
      "function": "renounceRole(bytes32,address)",
      "arguments": [
        "0x241ecf16d79d0f8dbfb92cbc07fe17840425976cf0667f022fe9877caa831b08",
        "0x33EB4dEa4931e5d607531Fb08Bd393944aA01Faa"
      ],
      "transaction": {
        "from": "0x33eb4dea4931e5d607531fb08bd393944aa01faa",
        "to": "0x1508f1b71210593406f8b614dcc41cdf3e6d2a6d",
        "gas": "0x868f",
        "value": "0x0",
        "input": "0x36568abe241ecf16d79d0f8dbfb92cbc07fe17840425976cf0667f022fe9877caa831b0800000000000000000000000033eb4dea4931e5d607531fb08bd393944aa01faa",
        "nonce": "0x31f",
        "chainId": "0x2105"
      },
      "additionalContracts": [],
      "isFixedGasLimit": false
    },
    {
      "hash": "0x2becefba7c5ac392860f30b4a84d5274d90b7028455e758a2075dd4238e297e9",
      "transactionType": "CALL",
      "contractName": "WrappedTokenAdapter",
      "contractAddress": "0x1508f1b71210593406f8b614dcc41cdf3e6d2a6d",
      "function": "renounceRole(bytes32,address)",
      "arguments": [
        "0x0000000000000000000000000000000000000000000000000000000000000000",
        "0x33EB4dEa4931e5d607531Fb08Bd393944aA01Faa"
      ],
      "transaction": {
        "from": "0x33eb4dea4931e5d607531fb08bd393944aa01faa",
        "to": "0x1508f1b71210593406f8b614dcc41cdf3e6d2a6d",
        "gas": "0x847d",
        "value": "0x0",
        "input": "0x36568abe000000000000000000000000000000000000000000000000000000000000000000000000000000000000000033eb4dea4931e5d607531fb08bd393944aa01faa",
        "nonce": "0x320",
        "chainId": "0x2105"
      },
      "additionalContracts": [],
      "isFixedGasLimit": false
    }
  ],
  "receipts": [
    {
      "status": "0x1",
      "cumulativeGasUsed": "0xd72aee",
      "logs": [
        {
          "address": "0x1508f1b71210593406f8b614dcc41cdf3e6d2a6d",
          "topics": [
            "0x2f8788117e7eff1d82e926ec794901d17c78024a50270940304540a733656f0d",
            "0x724f6a44d576143e18c60911798b2b15551ca96bd8f7cb7524b8fa36253a26d8",
            "0x000000000000000000000000e314ae9d279919a00d4773cce37946a98faddabc",
            "0x00000000000000000000000033eb4dea4931e5d607531fb08bd393944aa01faa"
          ],
          "data": "0x",
          "blockHash": "0x14f178d1b783dbab92dcc77592c02250f4ad00c14fb0906b89e8c0c8e36e124d",
          "blockNumber": "0x1024df2",
          "transactionHash": "0x603ea9c2393a7d6ada7bc2b06718634a19415e9b40345482479c87b364b830b0",
          "transactionIndex": "0x47",
          "logIndex": "0xfa",
          "removed": false
        },
        {
          "address": "0x1508f1b71210593406f8b614dcc41cdf3e6d2a6d",
          "topics": [
            "0x2f8788117e7eff1d82e926ec794901d17c78024a50270940304540a733656f0d",
            "0x0000000000000000000000000000000000000000000000000000000000000000",
            "0x00000000000000000000000033eb4dea4931e5d607531fb08bd393944aa01faa",
            "0x00000000000000000000000033eb4dea4931e5d607531fb08bd393944aa01faa"
          ],
          "data": "0x",
          "blockHash": "0x14f178d1b783dbab92dcc77592c02250f4ad00c14fb0906b89e8c0c8e36e124d",
          "blockNumber": "0x1024df2",
          "transactionHash": "0x603ea9c2393a7d6ada7bc2b06718634a19415e9b40345482479c87b364b830b0",
          "transactionIndex": "0x47",
          "logIndex": "0xfb",
          "removed": false
        }
      ],
      "logsBloom": "0x00000004000100000000000000000000000000000000000000000000000000000000000000004000000008000000000000000000000000000000000000000000000000000000000000000000000000000000000000000000000000000000000000000000020000000180000000000800000000000000000000000001000000000000000000000000000000000000000000000000000000000000002000000000000000000000000000040020000000000002000000000000001000000000000040000000000000000000000000000000000000000000000100000000000020000000000000000000800000000000000000000000000000000000000000000000",
      "type": "0x2",
      "transactionHash": "0x603ea9c2393a7d6ada7bc2b06718634a19415e9b40345482479c87b364b830b0",
      "transactionIndex": "0x47",
      "blockHash": "0x14f178d1b783dbab92dcc77592c02250f4ad00c14fb0906b89e8c0c8e36e124d",
      "blockNumber": "0x1024df2",
      "gasUsed": "0xe0e2e",
      "effectiveGasPrice": "0x48dc64",
      "from": "0x33eb4dea4931e5d607531fb08bd393944aa01faa",
      "to": null,
      "contractAddress": "0x1508f1b71210593406f8b614dcc41cdf3e6d2a6d",
      "l1BaseFeeScalar": "0x8dd",
      "l1BlobBaseFee": "0x1",
      "l1BlobBaseFeeScalar": "0x101c12",
      "l1Fee": "0x4ca7ee77e0",
      "l1GasPrice": "0x11516ecd6",
      "l1GasUsed": "0x79ec"
    },
    {
      "status": "0x1",
      "cumulativeGasUsed": "0x943ed7",
      "logs": [
        {
          "address": "0x1508f1b71210593406f8b614dcc41cdf3e6d2a6d",
          "topics": [
            "0x2f8788117e7eff1d82e926ec794901d17c78024a50270940304540a733656f0d",
            "0x241ecf16d79d0f8dbfb92cbc07fe17840425976cf0667f022fe9877caa831b08",
            "0x00000000000000000000000033eb4dea4931e5d607531fb08bd393944aa01faa",
            "0x00000000000000000000000033eb4dea4931e5d607531fb08bd393944aa01faa"
          ],
          "data": "0x",
          "blockHash": "0xc1823c646cfb5e666571b5a2924ce5245f9a10eee4dcbb269b61b2eb285442c0",
          "blockNumber": "0x1024df6",
          "transactionHash": "0x6d1d746685aa738b6bad7ccb50f5e8f81ab676c2bf666efa506aa3ca0bfce484",
          "transactionIndex": "0x41",
          "logIndex": "0xbd",
          "removed": false
        }
      ],
      "logsBloom": "0x00000004000100000000000000000000000000000000000000000000000000000000000000004000000000000000000000000000000000000000000000000000000000000020000000000000000000000000000000000000000000000000000000000000000000000004000000000000000000000000000000000000000000000000000000000000000000000000000000000000000000000000000000000000000000000000000000040020000000000000000000000000001000000000000040000000000000000000020000000000000000000000000100000000000000000000000000000000800000000000000000000000000000000000000000000000",
      "type": "0x2",
      "transactionHash": "0x6d1d746685aa738b6bad7ccb50f5e8f81ab676c2bf666efa506aa3ca0bfce484",
      "transactionIndex": "0x41",
      "blockHash": "0xc1823c646cfb5e666571b5a2924ce5245f9a10eee4dcbb269b61b2eb285442c0",
      "blockNumber": "0x1024df6",
      "gasUsed": "0xc887",
      "effectiveGasPrice": "0x48f520",
      "from": "0x33eb4dea4931e5d607531fb08bd393944aa01faa",
      "to": "0x1508f1b71210593406f8b614dcc41cdf3e6d2a6d",
      "contractAddress": null,
      "l1BaseFeeScalar": "0x8dd",
      "l1BlobBaseFee": "0x1",
      "l1BlobBaseFeeScalar": "0x101c12",
      "l1Fee": "0x435d99472",
      "l1GasPrice": "0x11516ecd6",
      "l1GasUsed": "0x6b2"
    },
    {
      "status": "0x1",
      "cumulativeGasUsed": "0x8faf51",
      "logs": [
        {
          "address": "0x1508f1b71210593406f8b614dcc41cdf3e6d2a6d",
          "topics": [
            "0x2f8788117e7eff1d82e926ec794901d17c78024a50270940304540a733656f0d",
            "0x241ecf16d79d0f8dbfb92cbc07fe17840425976cf0667f022fe9877caa831b08",
            "0x000000000000000000000000639d2dd24304ac2e6a691d8c1cff4a2665925fee",
            "0x00000000000000000000000033eb4dea4931e5d607531fb08bd393944aa01faa"
          ],
          "data": "0x",
          "blockHash": "0xcdd7a99bf8003294cc2fe5e66f01dd4243f009a6b74a8571763cbb7d4d06261a",
          "blockNumber": "0x1024dfa",
          "transactionHash": "0xa7f8397283e59846a51975b53ecfc973a5c88d25ef4b0edb66d3f152956ffcc4",
          "transactionIndex": "0x3b",
          "logIndex": "0xd3",
          "removed": false
        }
      ],
      "logsBloom": "0x00000004000100000000000000000000000000000000000000000000000000000000000000004000000000000000000000000000000000000000000000800000000000000020000000000000100000000000000000000000000000000000000000000000000000000014000000000000000000000000000000000000000000000000000000000000000000000000000000000000000000000000000000000000000000000000000000040020000000000000000000000000001000000000000040000000000000000000020000000000000000000000000100000000000000000000000000000000800000000000000000000000000000000000000000000000",
      "type": "0x2",
      "transactionHash": "0xa7f8397283e59846a51975b53ecfc973a5c88d25ef4b0edb66d3f152956ffcc4",
      "transactionIndex": "0x3b",
      "blockHash": "0xcdd7a99bf8003294cc2fe5e66f01dd4243f009a6b74a8571763cbb7d4d06261a",
      "blockNumber": "0x1024dfa",
      "gasUsed": "0xc887",
      "effectiveGasPrice": "0x48ea31",
      "from": "0x33eb4dea4931e5d607531fb08bd393944aa01faa",
      "to": "0x1508f1b71210593406f8b614dcc41cdf3e6d2a6d",
      "contractAddress": null,
      "l1BaseFeeScalar": "0x8dd",
      "l1BlobBaseFee": "0x1",
      "l1BlobBaseFeeScalar": "0x101c12",
      "l1Fee": "0x3bc831c76",
      "l1GasPrice": "0xf5e58105",
      "l1GasUsed": "0x6b2"
    },
    {
      "status": "0x1",
      "cumulativeGasUsed": "0xc554d7",
      "logs": [
        {
          "address": "0x1508f1b71210593406f8b614dcc41cdf3e6d2a6d",
          "topics": [
            "0x2f8788117e7eff1d82e926ec794901d17c78024a50270940304540a733656f0d",
            "0x241ecf16d79d0f8dbfb92cbc07fe17840425976cf0667f022fe9877caa831b08",
            "0x000000000000000000000000a1b5f2cc9b407177cd8a4acf1699fa0b99955a22",
            "0x00000000000000000000000033eb4dea4931e5d607531fb08bd393944aa01faa"
          ],
          "data": "0x",
          "blockHash": "0x033e60e8d20bceb17792ebbbdf8ccd202f64df51713645f2b70da5d411d2dede",
          "blockNumber": "0x1024dfd",
          "transactionHash": "0x869467a0b45b0ef8790e5277fe9d050339660b7edec84b63b6a45c77672a810b",
          "transactionIndex": "0x40",
          "logIndex": "0xce",
          "removed": false
        }
      ],
      "logsBloom": "0x00000004000100000200000000000000000000000000000000000000000000000000000000004000000000000000000000000000000000000000000000000000000000000020100000000000000000000000000000000000000000000000000000000000000000000004000000000000000000000000000000000000000000000000000000000000000000000000000000000000000000000000000000000000000000000000000000040020000000000000000000000000001000000000000040000000000000000000020000000000000000000000000100000000000000000000004000000000800000000000000000000000000000000000000000000000",
      "type": "0x2",
      "transactionHash": "0x869467a0b45b0ef8790e5277fe9d050339660b7edec84b63b6a45c77672a810b",
      "transactionIndex": "0x40",
      "blockHash": "0x033e60e8d20bceb17792ebbbdf8ccd202f64df51713645f2b70da5d411d2dede",
      "blockNumber": "0x1024dfd",
      "gasUsed": "0xc887",
      "effectiveGasPrice": "0x48b3f7",
      "from": "0x33eb4dea4931e5d607531fb08bd393944aa01faa",
      "to": "0x1508f1b71210593406f8b614dcc41cdf3e6d2a6d",
      "contractAddress": null,
      "l1BaseFeeScalar": "0x8dd",
      "l1BlobBaseFee": "0x1",
      "l1BlobBaseFeeScalar": "0x101c12",
      "l1Fee": "0x3f96d5487",
      "l1GasPrice": "0x1058e680b",
      "l1GasUsed": "0x6b2"
    },
    {
      "status": "0x1",
      "cumulativeGasUsed": "0xb09daa",
      "logs": [
        {
          "address": "0x1508f1b71210593406f8b614dcc41cdf3e6d2a6d",
          "topics": [
            "0x2f8788117e7eff1d82e926ec794901d17c78024a50270940304540a733656f0d",
            "0x0000000000000000000000000000000000000000000000000000000000000000",
            "0x000000000000000000000000639d2dd24304ac2e6a691d8c1cff4a2665925fee",
            "0x00000000000000000000000033eb4dea4931e5d607531fb08bd393944aa01faa"
          ],
          "data": "0x",
          "blockHash": "0x5c4998dc391feb6fbbb050e12b8e036891688bfffc1e8663e06127a8986736c8",
          "blockNumber": "0x1024e01",
          "transactionHash": "0x3b5e807448ef4ead04b0280dbe08dff97f598c3f983d3280da7f3705f3e5d913",
          "transactionIndex": "0x3f",
          "logIndex": "0xe7",
          "removed": false
        }
      ],
      "logsBloom": "0x00000004000100000000000000000000000000000000000000000000000000000000000000004000000000000000000000000000000000000000000000800000000000000000000000000000100000000000000000000000000000000000000000000000020000000010000000000800000000000000000000000000000000000000000000000000000000000000000000000000000000000000000000000000000000000000000000040020000000000000000000000000001000000000000040000000000000000000000000000000000000000000000100000000000020000000000000000000800000000000000000000000000000000000000000000000",
      "type": "0x2",
      "transactionHash": "0x3b5e807448ef4ead04b0280dbe08dff97f598c3f983d3280da7f3705f3e5d913",
      "transactionIndex": "0x3f",
      "blockHash": "0x5c4998dc391feb6fbbb050e12b8e036891688bfffc1e8663e06127a8986736c8",
      "blockNumber": "0x1024e01",
      "gasUsed": "0xc707",
      "effectiveGasPrice": "0x48b8e0",
      "from": "0x33eb4dea4931e5d607531fb08bd393944aa01faa",
      "to": "0x1508f1b71210593406f8b614dcc41cdf3e6d2a6d",
      "contractAddress": null,
      "l1BaseFeeScalar": "0x8dd",
      "l1BlobBaseFee": "0x1",
      "l1BlobBaseFeeScalar": "0x101c12",
      "l1Fee": "0x3b58dccde",
      "l1GasPrice": "0x1058e680b",
      "l1GasUsed": "0x640"
    },
    {
      "status": "0x1",
      "cumulativeGasUsed": "0x121bdfc",
      "logs": [
        {
          "address": "0x1508f1b71210593406f8b614dcc41cdf3e6d2a6d",
          "topics": [
            "0x2f8788117e7eff1d82e926ec794901d17c78024a50270940304540a733656f0d",
            "0x0000000000000000000000000000000000000000000000000000000000000000",
            "0x000000000000000000000000a1b5f2cc9b407177cd8a4acf1699fa0b99955a22",
            "0x00000000000000000000000033eb4dea4931e5d607531fb08bd393944aa01faa"
          ],
          "data": "0x",
          "blockHash": "0x564e3bd022ca0a3d32eb41a6feab61594130380a024598bd616d02cf90ac2dfa",
          "blockNumber": "0x1024e05",
          "transactionHash": "0x8e0dd157dbe03238877b7bf9a411fb5d001d06e85f5c0c4adc32368458b791dc",
          "transactionIndex": "0x46",
          "logIndex": "0x1f9",
          "removed": false
        }
      ],
      "logsBloom": "0x00000004000100000200000000000000000000000000000000000000000000000000000000004000000000000000000000000000000000000000000000000000000000000000100000000000000000000000000000000000000000000000000000000000020000000000000000000800000000000000000000000000000000000000000000000000000000000000000000000000000000000000000000000000000000000000000000040020000000000000000000000000001000000000000040000000000000000000000000000000000000000000000100000000000020000000004000000000800000000000000000000000000000000000000000000000",
      "type": "0x2",
      "transactionHash": "0x8e0dd157dbe03238877b7bf9a411fb5d001d06e85f5c0c4adc32368458b791dc",
      "transactionIndex": "0x46",
      "blockHash": "0x564e3bd022ca0a3d32eb41a6feab61594130380a024598bd616d02cf90ac2dfa",
      "blockNumber": "0x1024e05",
      "gasUsed": "0xc707",
      "effectiveGasPrice": "0x48b134",
      "from": "0x33eb4dea4931e5d607531fb08bd393944aa01faa",
      "to": "0x1508f1b71210593406f8b614dcc41cdf3e6d2a6d",
      "contractAddress": null,
      "l1BaseFeeScalar": "0x8dd",
      "l1BlobBaseFee": "0x1",
      "l1BlobBaseFeeScalar": "0x101c12",
      "l1Fee": "0x3aece9499",
      "l1GasPrice": "0x103b2a406",
      "l1GasUsed": "0x640"
    },
    {
      "status": "0x1",
      "cumulativeGasUsed": "0xeede22",
      "logs": [
        {
          "address": "0x1508f1b71210593406f8b614dcc41cdf3e6d2a6d",
          "topics": [
            "0x988b467c8b46ba8a6353c7cc3fb4c8b1909fc087a185dbea36ea030d95a265fa"
          ],
          "data": "0x000000000000000000000000c1cba3fcea344f92d9239c08c0568f6f2f0ee452000000000000000000000000c9ae3b5673341859d3ac55941d27c8be4698c9e4000000000000000000000000c9ae3b5673341859d3ac55941d27c8be4698c9e4",
          "blockHash": "0xfee43c9d0ada1492c458809f9a8d9dfb4358538bdc2d70ef5035674395e82e49",
          "blockNumber": "0x1024e08",
          "transactionHash": "0x272cd14be41b6783e218a0ba525603cf7254691eda35b0bfee6d3b75e6be6f15",
          "transactionIndex": "0x48",
          "logIndex": "0x149",
          "removed": false
        },
        {
          "address": "0x1508f1b71210593406f8b614dcc41cdf3e6d2a6d",
          "topics": [
            "0x988b467c8b46ba8a6353c7cc3fb4c8b1909fc087a185dbea36ea030d95a265fa"
          ],
          "data": "0x000000000000000000000000c9ae3b5673341859d3ac55941d27c8be4698c9e4000000000000000000000000c1cba3fcea344f92d9239c08c0568f6f2f0ee452000000000000000000000000c9ae3b5673341859d3ac55941d27c8be4698c9e4",
          "blockHash": "0xfee43c9d0ada1492c458809f9a8d9dfb4358538bdc2d70ef5035674395e82e49",
          "blockNumber": "0x1024e08",
          "transactionHash": "0x272cd14be41b6783e218a0ba525603cf7254691eda35b0bfee6d3b75e6be6f15",
          "transactionIndex": "0x48",
          "logIndex": "0x14a",
          "removed": false
        }
      ],
      "logsBloom": "0x00000000000000000000000000000000000000000000000000000000000000000000000000004000000000000000000000000000000000000000000000000000000000000000000000000000000000000000000000000000000000000000000000000000000000000000000000000000000000000000000000000000000000000000000000000000000000000000000000000000000000000000000000004000000000000000000000040000000000000000000000000000000000000000020040000000000000000000000000000000000000000000000000000000000000000000000002000000000000000000000000000000000000000000000000000000",
      "type": "0x2",
      "transactionHash": "0x272cd14be41b6783e218a0ba525603cf7254691eda35b0bfee6d3b75e6be6f15",
      "transactionIndex": "0x48",
      "blockHash": "0xfee43c9d0ada1492c458809f9a8d9dfb4358538bdc2d70ef5035674395e82e49",
      "blockNumber": "0x1024e08",
      "gasUsed": "0x11d58",
      "effectiveGasPrice": "0x48f21c",
      "from": "0x33eb4dea4931e5d607531fb08bd393944aa01faa",
      "to": "0x1508f1b71210593406f8b614dcc41cdf3e6d2a6d",
      "contractAddress": null,
      "l1BaseFeeScalar": "0x8dd",
      "l1BlobBaseFee": "0x1",
      "l1BlobBaseFeeScalar": "0x101c12",
      "l1Fee": "0x3fa159d6e",
      "l1GasPrice": "0x103b2a406",
      "l1GasUsed": "0x6bf"
    },
    {
      "status": "0x1",
      "cumulativeGasUsed": "0xc95f47",
      "logs": [
        {
          "address": "0x1508f1b71210593406f8b614dcc41cdf3e6d2a6d",
          "topics": [
            "0x988b467c8b46ba8a6353c7cc3fb4c8b1909fc087a185dbea36ea030d95a265fa"
          ],
          "data": "0x00000000000000000000000042000000000000000000000000000000000000060000000000000000000000003e8707557d4ad25d6042f590bcf8a06071da2c5f0000000000000000000000003e8707557d4ad25d6042f590bcf8a06071da2c5f",
          "blockHash": "0x51d9f5d2e40d9e87ebf5424c2726ca2a39760d44b7deca82386b70cabe240291",
          "blockNumber": "0x1024e0c",
          "transactionHash": "0x3454de5430e2ae7400949ca9f58d0a6ec963cd6233cb8fc889da22719c5cbf95",
          "transactionIndex": "0x3d",
          "logIndex": "0xd3",
          "removed": false
        },
        {
          "address": "0x1508f1b71210593406f8b614dcc41cdf3e6d2a6d",
          "topics": [
            "0x988b467c8b46ba8a6353c7cc3fb4c8b1909fc087a185dbea36ea030d95a265fa"
          ],
          "data": "0x0000000000000000000000003e8707557d4ad25d6042f590bcf8a06071da2c5f00000000000000000000000042000000000000000000000000000000000000060000000000000000000000003e8707557d4ad25d6042f590bcf8a06071da2c5f",
          "blockHash": "0x51d9f5d2e40d9e87ebf5424c2726ca2a39760d44b7deca82386b70cabe240291",
          "blockNumber": "0x1024e0c",
          "transactionHash": "0x3454de5430e2ae7400949ca9f58d0a6ec963cd6233cb8fc889da22719c5cbf95",
          "transactionIndex": "0x3d",
          "logIndex": "0xd4",
          "removed": false
        }
      ],
      "logsBloom": "0x00000000000000000000000000000000000000000000000000000000000000000000000000004000000000000000000000000000000000000000000000000000000000000000000000000000000000000000000000000000000000000000000000000000000000000000000000000000000000000000000000000000000000000000000000000000000000000000000000000000000000000000000000004000000000000000000000040000000000000000000000000000000000000000020040000000000000000000000000000000000000000000000000000000000000000000000002000000000000000000000000000000000000000000000000000000",
      "type": "0x2",
      "transactionHash": "0x3454de5430e2ae7400949ca9f58d0a6ec963cd6233cb8fc889da22719c5cbf95",
      "transactionIndex": "0x3d",
      "blockHash": "0x51d9f5d2e40d9e87ebf5424c2726ca2a39760d44b7deca82386b70cabe240291",
      "blockNumber": "0x1024e0c",
      "gasUsed": "0x11c80",
      "effectiveGasPrice": "0x48f7a2",
      "from": "0x33eb4dea4931e5d607531fb08bd393944aa01faa",
      "to": "0x1508f1b71210593406f8b614dcc41cdf3e6d2a6d",
      "contractAddress": null,
      "l1BaseFeeScalar": "0x8dd",
      "l1BlobBaseFee": "0x1",
      "l1BlobBaseFeeScalar": "0x101c12",
      "l1Fee": "0x3c5e07b94",
      "l1GasPrice": "0x10a0d6e89",
      "l1GasUsed": "0x640"
    },
    {
      "status": "0x1",
      "cumulativeGasUsed": "0xa92a0a",
      "logs": [
        {
          "address": "0x1508f1b71210593406f8b614dcc41cdf3e6d2a6d",
          "topics": [
            "0xf6391f5c32d9c69d2a47ea670b442974b53935d1edc7fd64eb21e047a839171b",
            "0x241ecf16d79d0f8dbfb92cbc07fe17840425976cf0667f022fe9877caa831b08",
            "0x00000000000000000000000033eb4dea4931e5d607531fb08bd393944aa01faa",
            "0x00000000000000000000000033eb4dea4931e5d607531fb08bd393944aa01faa"
          ],
          "data": "0x",
          "blockHash": "0xb7f5ec59ae1534e8172a0030c378bc70b7fe7d9eae8e35362b67f3f09c0fd352",
          "blockNumber": "0x1024e0f",
          "transactionHash": "0x72cb31008ffbae5d720f7d4fd25a620c8eb0c890f6cb64f04dffac96bb80634b",
          "transactionIndex": "0x3c",
          "logIndex": "0xec",
          "removed": false
        }
      ],
      "logsBloom": "0x00000000000100000000000000000000000000000000000000000000000000000000000000004000000000000000000000200000000000000000000000000000000000000020000000000000000000000000000000000000000000000000000040000000000000000004000000000000000000000000000000000000000000000000000040000000000000000000000000000000000000000000000000000000000000000000000000040020000000000000000000000000000000000000000040000000000000000000020000000000000000000000000000000000000000000000000000000000800000000000000000000000000000000000000000000000",
      "type": "0x2",
      "transactionHash": "0x72cb31008ffbae5d720f7d4fd25a620c8eb0c890f6cb64f04dffac96bb80634b",
      "transactionIndex": "0x3c",
      "blockHash": "0xb7f5ec59ae1534e8172a0030c378bc70b7fe7d9eae8e35362b67f3f09c0fd352",
      "blockNumber": "0x1024e0f",
      "gasUsed": "0x616c",
      "effectiveGasPrice": "0x49080c",
      "from": "0x33eb4dea4931e5d607531fb08bd393944aa01faa",
      "to": "0x1508f1b71210593406f8b614dcc41cdf3e6d2a6d",
      "contractAddress": null,
      "l1BaseFeeScalar": "0x8dd",
      "l1BlobBaseFee": "0x1",
      "l1BlobBaseFeeScalar": "0x101c12",
      "l1Fee": "0x3e9543b30",
      "l1GasPrice": "0x103717d33",
      "l1GasUsed": "0x6a4"
    },
    {
      "status": "0x1",
      "cumulativeGasUsed": "0xafafeb",
      "logs": [
        {
          "address": "0x1508f1b71210593406f8b614dcc41cdf3e6d2a6d",
          "topics": [
            "0xf6391f5c32d9c69d2a47ea670b442974b53935d1edc7fd64eb21e047a839171b",
            "0x0000000000000000000000000000000000000000000000000000000000000000",
            "0x00000000000000000000000033eb4dea4931e5d607531fb08bd393944aa01faa",
            "0x00000000000000000000000033eb4dea4931e5d607531fb08bd393944aa01faa"
          ],
          "data": "0x",
          "blockHash": "0xec5e6ca97471a90086d3c09ca292e9515b17436cda7abe3bfb3fe78396f4614f",
          "blockNumber": "0x1024e13",
          "transactionHash": "0x2becefba7c5ac392860f30b4a84d5274d90b7028455e758a2075dd4238e297e9",
          "transactionIndex": "0x35",
          "logIndex": "0x85",
          "removed": false
        }
      ],
      "logsBloom": "0x00000000000100000000000000000000000000000000000000000000000000000000000000004000000000000000000000200000000000000000000000000000000000000000000000000000000000000000000000000000000000000000000040000000020000000000000000000800000000000000000000000000000000000000000040000000000000000000000000000000000000000000000000000000000000000000000000040020000000000000000000000000000000000000000040000000000000000000000000000000000000000000000000000000000020000000000000000000800000000000000000000000000000000000000000000000",
      "type": "0x2",
      "transactionHash": "0x2becefba7c5ac392860f30b4a84d5274d90b7028455e758a2075dd4238e297e9",
      "transactionIndex": "0x35",
      "blockHash": "0xec5e6ca97471a90086d3c09ca292e9515b17436cda7abe3bfb3fe78396f4614f",
      "blockNumber": "0x1024e13",
      "gasUsed": "0x5fec",
      "effectiveGasPrice": "0x4914d4",
      "from": "0x33eb4dea4931e5d607531fb08bd393944aa01faa",
      "to": "0x1508f1b71210593406f8b614dcc41cdf3e6d2a6d",
      "contractAddress": null,
      "l1BaseFeeScalar": "0x8dd",
      "l1BlobBaseFee": "0x1",
      "l1BlobBaseFeeScalar": "0x101c12",
      "l1Fee": "0x3ade20dcb",
      "l1GasPrice": "0x103717d33",
      "l1GasUsed": "0x640"
    }
  ],
  "libraries": [],
  "pending": [],
  "returns": {},
  "timestamp": 1720645919,
  "chain": 8453,
  "commit": "cbc5b0f"
}