{
  "transactions": [
    {
      "hash": "0x1b3ef631d9fe553c3051c32f64dc2dada0a362da4ebfbd57fa720c6943033d61",
      "transactionType": "CREATE",
      "contractName": "UniversalAerodromeAdapter",
      "contractAddress": "0x87f8d14a8796b22116d267cfe9a57e986f207468",
      "function": null,
      "arguments": [
        "0x33EB4dEa4931e5d607531Fb08Bd393944aA01Faa",
        "0x6Cb442acF35158D5eDa88fe602221b67B400Be3E",
        "0xE314ae9D279919a00d4773cCe37946A98fADDaBc"
      ],
      "transaction": {
        "from": "0x33eb4dea4931e5d607531fb08bd393944aa01faa",
        "gas": "0x1d9789",
        "value": "0x0",
        "input": "0x60a06040523480156200001157600080fd5b5060405162001ae738038062001ae7833981016040819052620000349162000151565b6001600160a01b0382166080526200004e60008462000085565b506200007b7f724f6a44d576143e18c60911798b2b15551ca96bd8f7cb7524b8fa36253a26d88262000085565b505050506200019b565b6000828152602081815260408083206001600160a01b038516845290915281205460ff166200012a576000838152602081815260408083206001600160a01b03861684529091529020805460ff19166001179055620000e13390565b6001600160a01b0316826001600160a01b0316847f2f8788117e7eff1d82e926ec794901d17c78024a50270940304540a733656f0d60405160405180910390a45060016200012e565b5060005b92915050565b80516001600160a01b03811681146200014c57600080fd5b919050565b6000806000606084860312156200016757600080fd5b620001728462000134565b9250620001826020850162000134565b9150620001926040850162000134565b90509250925092565b608051611922620001c5600039600081816102360152818161063f015261079801526119226000f3fe608060405234801561001057600080fd5b50600436106100df5760003560e01c806391d148541161008c578063d547741f11610066578063d547741f146101f7578063df668eca1461020a578063e8dd7fc314610231578063ec87621c1461027d57600080fd5b806391d1485414610198578063a217fddf146101dc578063b1ecca94146101e457600080fd5b80632f2ff15d116100bd5780632f2ff15d1461015057806336568abe146101655780634a6a749c1461017857600080fd5b806301ffc9a7146100e4578063174d2aee1461010c578063248a9ca31461012d575b600080fd5b6100f76100f23660046110fd565b6102a4565b60405190151581526020015b60405180910390f35b61011f61011a366004611161565b61033d565b604051908152602001610103565b61011f61013b3660046111b4565b60009081526020819052604090206001015490565b61016361015e3660046111cd565b610381565b005b6101636101733660046111cd565b6103ac565b61018b6101863660046111fd565b61040a565b6040516101039190611299565b6100f76101a63660046111cd565b60009182526020828152604080842073ffffffffffffffffffffffffffffffffffffffff93909316845291905290205460ff1690565b61011f600081565b6101636101f23660046112f8565b6104af565b6101636102053660046111cd565b6105cd565b61011f7f724f6a44d576143e18c60911798b2b15551ca96bd8f7cb7524b8fa36253a26d881565b6102587f000000000000000000000000000000000000000000000000000000000000000081565b60405173ffffffffffffffffffffffffffffffffffffffff9091168152602001610103565b61011f7f241ecf16d79d0f8dbfb92cbc07fe17840425976cf0667f022fe9877caa831b0881565b60007fffffffff0000000000000000000000000000000000000000000000000000000082167f7965db0b00000000000000000000000000000000000000000000000000000000148061033757507f01ffc9a7000000000000000000000000000000000000000000000000000000007fffffffff000000000000000000000000000000000000000000000000000000008316145b92915050565b60007f724f6a44d576143e18c60911798b2b15551ca96bd8f7cb7524b8fa36253a26d8610369816105f2565b610375868686866105ff565b91505b50949350505050565b60008281526020819052604090206001015461039c816105f2565b6103a683836108bd565b50505050565b73ffffffffffffffffffffffffffffffffffffffff811633146103fb576040517f6697b23200000000000000000000000000000000000000000000000000000000815260040160405180910390fd5b61040582826109b9565b505050565b60016020908152600092835260408084209091529082529020805461042e90611364565b80601f016020809104026020016040519081016040528092919081815260200182805461045a90611364565b80156104a75780601f1061047c576101008083540402835291602001916104a7565b820191906000526020600020905b81548152906001019060200180831161048a57829003601f168201915b505050505081565b7f241ecf16d79d0f8dbfb92cbc07fe17840425976cf0667f022fe9877caa831b086104d9816105f2565b60006104e786868686610a74565b90506000868660008181106104fe576104fe6113b7565b905060200201602081019061051391906113e6565b905060008787610524600182611432565b818110610533576105336113b7565b905060200201602081019061054891906113e6565b73ffffffffffffffffffffffffffffffffffffffff808416600090815260016020908152604080832093851683529290522090915061058784826114c2565b507f0f0abd9687d6f21e88cad01a785b2dce7080f1f0b706ca834de4633bfb48ecc18282856040516105bb939291906115dc565b60405180910390a15050505050505050565b6000828152602081905260409020600101546105e8816105f2565b6103a683836109b9565b6105fc8133610ba7565b50565b600061062373ffffffffffffffffffffffffffffffffffffffff8616333086610c36565b61066473ffffffffffffffffffffffffffffffffffffffff86167f000000000000000000000000000000000000000000000000000000000000000085610cbf565b604080516001808252818301909252600091816020015b606081526020019060019003908161067b5790505090506106a0838787876000610d97565b816000815181106106b3576106b36113b7565b60209081029190910101526040517f70a0823100000000000000000000000000000000000000000000000000000000815273ffffffffffffffffffffffffffffffffffffffff8481166004830152600091908716906370a0823190602401602060405180830381865afa15801561072e573d6000803e3d6000fd5b505050506040513d601f19601f820116820180604052508101906107529190611615565b60408051600060208201528151600181830301815260218201928390527f3593564c000000000000000000000000000000000000000000000000000000009092529192507f000000000000000000000000000000000000000000000000000000000000000073ffffffffffffffffffffffffffffffffffffffff1691633593564c916107e4918690429060250161162e565b600060405180830381600087803b1580156107fe57600080fd5b505af1158015610812573d6000803e3d6000fd5b50506040517f70a0823100000000000000000000000000000000000000000000000000000000815273ffffffffffffffffffffffffffffffffffffffff8781166004830152849350891691506370a0823190602401602060405180830381865afa158015610884573d6000803e3d6000fd5b505050506040513d601f19601f820116820180604052508101906108a89190611615565b6108b29190611432565b979650505050505050565b60008281526020818152604080832073ffffffffffffffffffffffffffffffffffffffff8516845290915281205460ff166109b15760008381526020818152604080832073ffffffffffffffffffffffffffffffffffffffff86168452909152902080547fffffffffffffffffffffffffffffffffffffffffffffffffffffffffffffff0016600117905561094f3390565b73ffffffffffffffffffffffffffffffffffffffff168273ffffffffffffffffffffffffffffffffffffffff16847f2f8788117e7eff1d82e926ec794901d17c78024a50270940304540a733656f0d60405160405180910390a4506001610337565b506000610337565b60008281526020818152604080832073ffffffffffffffffffffffffffffffffffffffff8516845290915281205460ff16156109b15760008381526020818152604080832073ffffffffffffffffffffffffffffffffffffffff8616808552925280832080547fffffffffffffffffffffffffffffffffffffffffffffffffffffffffffffff0016905551339286917ff6391f5c32d9c69d2a47ea670b442974b53935d1edc7fd64eb21e047a839171b9190a4506001610337565b6060610a818260016116c7565b8414610ab9576040517f657782de00000000000000000000000000000000000000000000000000000000815260040160405180910390fd5b60005b8481101561037857610acf600186611432565b8103610b245781868683818110610ae857610ae86113b7565b9050602002016020810190610afd91906113e6565b604051602001610b0e9291906116da565b6040516020818303038152906040529150610b97565b81868683818110610b3757610b376113b7565b9050602002016020810190610b4c91906113e6565b858584818110610b5e57610b5e6113b7565b9050602002016020810190610b739190611724565b604051602001610b8593929190611747565b60405160208183030381529060405291505b610ba08161179c565b9050610abc565b60008281526020818152604080832073ffffffffffffffffffffffffffffffffffffffff8516845290915290205460ff16610c32576040517fe2517d3f00000000000000000000000000000000000000000000000000000000815273ffffffffffffffffffffffffffffffffffffffff82166004820152602481018390526044015b60405180910390fd5b5050565b60405173ffffffffffffffffffffffffffffffffffffffff84811660248301528381166044830152606482018390526103a69186918216906323b872dd906084015b604051602081830303815290604052915060e01b6020820180517bffffffffffffffffffffffffffffffffffffffffffffffffffffffff8381831617835250505050610dfc565b6040805173ffffffffffffffffffffffffffffffffffffffff8416602482015260448082018490528251808303909101815260649091019091526020810180517bffffffffffffffffffffffffffffffffffffffffffffffffffffffff167f095ea7b300000000000000000000000000000000000000000000000000000000179052610d4b8482610e92565b6103a65760405173ffffffffffffffffffffffffffffffffffffffff848116602483015260006044830152610d8d91869182169063095ea7b390606401610c78565b6103a68482610dfc565b73ffffffffffffffffffffffffffffffffffffffff80851660009081526001602081815260408084209488168452938152918390209251606093610de2938a938893889392016117d4565b604051602081830303815290604052905095945050505050565b6000610e1e73ffffffffffffffffffffffffffffffffffffffff841683610f54565b90508051600014158015610e43575080806020019051810190610e4191906118ae565b155b15610405576040517f5274afe700000000000000000000000000000000000000000000000000000000815273ffffffffffffffffffffffffffffffffffffffff84166004820152602401610c29565b60008060008473ffffffffffffffffffffffffffffffffffffffff1684604051610ebc91906118d0565b6000604051808303816000865af19150503d8060008114610ef9576040519150601f19603f3d011682016040523d82523d6000602084013e610efe565b606091505b5091509150818015610f28575080511580610f28575080806020019051810190610f2891906118ae565b8015610f4b575060008573ffffffffffffffffffffffffffffffffffffffff163b115b95945050505050565b6060610f6283836000610f69565b9392505050565b606081471015610fa7576040517fcd786059000000000000000000000000000000000000000000000000000000008152306004820152602401610c29565b6000808573ffffffffffffffffffffffffffffffffffffffff168486604051610fd091906118d0565b60006040518083038185875af1925050503d806000811461100d576040519150601f19603f3d011682016040523d82523d6000602084013e611012565b606091505b509150915061102286838361102c565b9695505050505050565b6060826110415761103c826110bb565b610f62565b8151158015611065575073ffffffffffffffffffffffffffffffffffffffff84163b155b156110b4576040517f9996b31500000000000000000000000000000000000000000000000000000000815273ffffffffffffffffffffffffffffffffffffffff85166004820152602401610c29565b5080610f62565b8051156110cb5780518082602001fd5b6040517f1425ea4200000000000000000000000000000000000000000000000000000000815260040160405180910390fd5b60006020828403121561110f57600080fd5b81357fffffffff0000000000000000000000000000000000000000000000000000000081168114610f6257600080fd5b73ffffffffffffffffffffffffffffffffffffffff811681146105fc57600080fd5b6000806000806080858703121561117757600080fd5b84356111828161113f565b935060208501356111928161113f565b92506040850135915060608501356111a98161113f565b939692955090935050565b6000602082840312156111c657600080fd5b5035919050565b600080604083850312156111e057600080fd5b8235915060208301356111f28161113f565b809150509250929050565b6000806040838503121561121057600080fd5b823561121b8161113f565b915060208301356111f28161113f565b60005b8381101561124657818101518382015260200161122e565b50506000910152565b6000815180845261126781602086016020860161122b565b601f017fffffffffffffffffffffffffffffffffffffffffffffffffffffffffffffffe0169290920160200192915050565b602081526000610f62602083018461124f565b60008083601f8401126112be57600080fd5b50813567ffffffffffffffff8111156112d657600080fd5b6020830191508360208260051b85010111156112f157600080fd5b9250929050565b6000806000806040858703121561130e57600080fd5b843567ffffffffffffffff8082111561132657600080fd5b611332888389016112ac565b9096509450602087013591508082111561134b57600080fd5b50611358878288016112ac565b95989497509550505050565b600181811c9082168061137857607f821691505b6020821081036113b1577f4e487b7100000000000000000000000000000000000000000000000000000000600052602260045260246000fd5b50919050565b7f4e487b7100000000000000000000000000000000000000000000000000000000600052603260045260246000fd5b6000602082840312156113f857600080fd5b8135610f628161113f565b7f4e487b7100000000000000000000000000000000000000000000000000000000600052601160045260246000fd5b8181038181111561033757610337611403565b7f4e487b7100000000000000000000000000000000000000000000000000000000600052604160045260246000fd5b601f82111561040557600081815260208120601f850160051c8101602086101561149b5750805b601f850160051c820191505b818110156114ba578281556001016114a7565b505050505050565b815167ffffffffffffffff8111156114dc576114dc611445565b6114f0816114ea8454611364565b84611474565b602080601f831160018114611543576000841561150d5750858301515b7fffffffffffffffffffffffffffffffffffffffffffffffffffffffffffffffff600386901b1c1916600185901b1785556114ba565b6000858152602081207fffffffffffffffffffffffffffffffffffffffffffffffffffffffffffffffe08616915b8281101561159057888601518255948401946001909101908401611571565b50858210156115cc57878501517fffffffffffffffffffffffffffffffffffffffffffffffffffffffffffffffff600388901b60f8161c191681555b5050505050600190811b01905550565b600073ffffffffffffffffffffffffffffffffffffffff808616835280851660208401525060606040830152610f4b606083018461124f565b60006020828403121561162757600080fd5b5051919050565b606081526000611641606083018661124f565b6020838203818501528186518084528284019150828160051b85010183890160005b838110156116af577fffffffffffffffffffffffffffffffffffffffffffffffffffffffffffffffe087840301855261169d83835161124f565b94860194925090850190600101611663565b50508095505050505050826040830152949350505050565b8082018082111561033757610337611403565b600083516116ec81846020880161122b565b60609390931b7fffffffffffffffffffffffffffffffffffffffff000000000000000000000000169190920190815260140192915050565b60006020828403121561173657600080fd5b81358060020b8114610f6257600080fd5b6000845161175981846020890161122b565b60609490941b7fffffffffffffffffffffffffffffffffffffffff000000000000000000000000169190930190815260e89190911b601482015260170192915050565b60007fffffffffffffffffffffffffffffffffffffffffffffffffffffffffffffffff82036117cd576117cd611403565b5060010190565b73ffffffffffffffffffffffffffffffffffffffff8616815260006020868184015285604084015260a060608401526000855461181081611364565b8060a087015260c0600180841660008114611832576001811461186a57611898565b7fffffffffffffffffffffffffffffffffffffffffffffffffffffffffffffff008516838a01528284151560051b8a01019550611898565b8a6000528660002060005b858110156118905781548b8201860152908301908801611875565b8a0184019650505b5050505085151560808601525091506110229050565b6000602082840312156118c057600080fd5b81518015158114610f6257600080fd5b600082516118e281846020870161122b565b919091019291505056fea264697066735822122047a4b32de08f387b8ff064c00792cb4da05812c197800d9d45f046b3b85e940b64736f6c6343000815003300000000000000000000000033eb4dea4931e5d607531fb08bd393944aa01faa0000000000000000000000006cb442acf35158d5eda88fe602221b67b400be3e000000000000000000000000e314ae9d279919a00d4773cce37946a98faddabc",
        "nonce": "0x321",
        "chainId": "0x2105"
      },
      "additionalContracts": [],
      "isFixedGasLimit": false
    },
    {
      "hash": "0xa4d046386249b9b17e9b0e34d88a9b3963af5458231dcb9ba59900c6357ee7af",
      "transactionType": "CALL",
      "contractName": "UniversalAerodromeAdapter",
      "contractAddress": "0x87f8d14a8796b22116d267cfe9a57e986f207468",
      "function": "grantRole(bytes32,address)",
      "arguments": [
        "0x241ecf16d79d0f8dbfb92cbc07fe17840425976cf0667f022fe9877caa831b08",
        "0x33EB4dEa4931e5d607531Fb08Bd393944aA01Faa"
      ],
      "transaction": {
        "from": "0x33eb4dea4931e5d607531fb08bd393944aa01faa",
        "to": "0x87f8d14a8796b22116d267cfe9a57e986f207468",
        "gas": "0x12525",
        "value": "0x0",
        "input": "0x2f2ff15d241ecf16d79d0f8dbfb92cbc07fe17840425976cf0667f022fe9877caa831b0800000000000000000000000033eb4dea4931e5d607531fb08bd393944aa01faa",
        "nonce": "0x322",
        "chainId": "0x2105"
      },
      "additionalContracts": [],
      "isFixedGasLimit": false
    },
    {
      "hash": "0x6c318cc9585a93c325a1b5618b053d2f0c15bbd21acc0253625054592540450c",
      "transactionType": "CALL",
      "contractName": "UniversalAerodromeAdapter",
      "contractAddress": "0x87f8d14a8796b22116d267cfe9a57e986f207468",
      "function": "grantRole(bytes32,address)",
      "arguments": [
        "0x241ecf16d79d0f8dbfb92cbc07fe17840425976cf0667f022fe9877caa831b08",
        "0x639d2dD24304aC2e6A691d8c1cFf4a2665925fee"
      ],
      "transaction": {
        "from": "0x33eb4dea4931e5d607531fb08bd393944aa01faa",
        "to": "0x87f8d14a8796b22116d267cfe9a57e986f207468",
        "gas": "0x12525",
        "value": "0x0",
        "input": "0x2f2ff15d241ecf16d79d0f8dbfb92cbc07fe17840425976cf0667f022fe9877caa831b08000000000000000000000000639d2dd24304ac2e6a691d8c1cff4a2665925fee",
        "nonce": "0x323",
        "chainId": "0x2105"
      },
      "additionalContracts": [],
      "isFixedGasLimit": false
    },
    {
      "hash": "0xe1dc44cbd280584077793e3076907da25cf7ccde67c0584f017b8ce2a631112f",
      "transactionType": "CALL",
      "contractName": "UniversalAerodromeAdapter",
      "contractAddress": "0x87f8d14a8796b22116d267cfe9a57e986f207468",
      "function": "grantRole(bytes32,address)",
      "arguments": [
        "0x241ecf16d79d0f8dbfb92cbc07fe17840425976cf0667f022fe9877caa831b08",
        "0xA1b5f2cc9B407177CD8a4ACF1699fa0b99955A22"
      ],
      "transaction": {
        "from": "0x33eb4dea4931e5d607531fb08bd393944aa01faa",
        "to": "0x87f8d14a8796b22116d267cfe9a57e986f207468",
        "gas": "0x12525",
        "value": "0x0",
        "input": "0x2f2ff15d241ecf16d79d0f8dbfb92cbc07fe17840425976cf0667f022fe9877caa831b08000000000000000000000000a1b5f2cc9b407177cd8a4acf1699fa0b99955a22",
        "nonce": "0x324",
        "chainId": "0x2105"
      },
      "additionalContracts": [],
      "isFixedGasLimit": false
    },
    {
      "hash": "0xc872e5c53a9a5ce4740253f551788bc27a20b0c1f5166411bae3d3cc43ba9451",
      "transactionType": "CALL",
      "contractName": "UniversalAerodromeAdapter",
      "contractAddress": "0x87f8d14a8796b22116d267cfe9a57e986f207468",
      "function": "grantRole(bytes32,address)",
      "arguments": [
        "0x0000000000000000000000000000000000000000000000000000000000000000",
        "0x639d2dD24304aC2e6A691d8c1cFf4a2665925fee"
      ],
      "transaction": {
        "from": "0x33eb4dea4931e5d607531fb08bd393944aa01faa",
        "to": "0x87f8d14a8796b22116d267cfe9a57e986f207468",
        "gas": "0x122f3",
        "value": "0x0",
        "input": "0x2f2ff15d0000000000000000000000000000000000000000000000000000000000000000000000000000000000000000639d2dd24304ac2e6a691d8c1cff4a2665925fee",
        "nonce": "0x325",
        "chainId": "0x2105"
      },
      "additionalContracts": [],
      "isFixedGasLimit": false
    },
    {
      "hash": "0x4579f838d9ab89519902e968d8561275f4b38f5e170173e32aa2fbaba85fdf4c",
      "transactionType": "CALL",
      "contractName": "UniversalAerodromeAdapter",
      "contractAddress": "0x87f8d14a8796b22116d267cfe9a57e986f207468",
      "function": "grantRole(bytes32,address)",
      "arguments": [
        "0x0000000000000000000000000000000000000000000000000000000000000000",
        "0xA1b5f2cc9B407177CD8a4ACF1699fa0b99955A22"
      ],
      "transaction": {
        "from": "0x33eb4dea4931e5d607531fb08bd393944aa01faa",
        "to": "0x87f8d14a8796b22116d267cfe9a57e986f207468",
        "gas": "0x122f3",
        "value": "0x0",
        "input": "0x2f2ff15d0000000000000000000000000000000000000000000000000000000000000000000000000000000000000000a1b5f2cc9b407177cd8a4acf1699fa0b99955a22",
        "nonce": "0x326",
        "chainId": "0x2105"
      },
      "additionalContracts": [],
      "isFixedGasLimit": false
    },
    {
      "hash": "0x7fa9c197a83790c5d348757cd326fedcfc6dbbd30533ad714296520cc016f957",
      "transactionType": "CALL",
      "contractName": "UniversalAerodromeAdapter",
      "contractAddress": "0x87f8d14a8796b22116d267cfe9a57e986f207468",
      "function": "setPath(address[],int24[])",
      "arguments": [
        "[0x833589fCD6eDb6E08f4c7C32D4f71b54bdA02913, 0x4200000000000000000000000000000000000006]",
        "[100]"
      ],
      "transaction": {
        "from": "0x33eb4dea4931e5d607531fb08bd393944aa01faa",
        "to": "0x87f8d14a8796b22116d267cfe9a57e986f207468",
        "gas": "0x20dbd",
        "value": "0x0",
        "input": "0xb1ecca94000000000000000000000000000000000000000000000000000000000000004000000000000000000000000000000000000000000000000000000000000000a00000000000000000000000000000000000000000000000000000000000000002000000000000000000000000833589fcd6edb6e08f4c7c32d4f71b54bda02913000000000000000000000000420000000000000000000000000000000000000600000000000000000000000000000000000000000000000000000000000000010000000000000000000000000000000000000000000000000000000000000064",
        "nonce": "0x327",
        "chainId": "0x2105"
      },
      "additionalContracts": [],
      "isFixedGasLimit": false
    },
    {
      "hash": "0xa5d5810378ec2f176abdd2abad67b867c93081adff70a26b7406501e739eb22a",
      "transactionType": "CALL",
      "contractName": "UniversalAerodromeAdapter",
      "contractAddress": "0x87f8d14a8796b22116d267cfe9a57e986f207468",
      "function": "setPath(address[],int24[])",
      "arguments": [
        "[0x4200000000000000000000000000000000000006, 0x833589fCD6eDb6E08f4c7C32D4f71b54bdA02913]",
        "[100]"
      ],
      "transaction": {
        "from": "0x33eb4dea4931e5d607531fb08bd393944aa01faa",
        "to": "0x87f8d14a8796b22116d267cfe9a57e986f207468",
        "gas": "0x20dbd",
        "value": "0x0",
        "input": "0xb1ecca94000000000000000000000000000000000000000000000000000000000000004000000000000000000000000000000000000000000000000000000000000000a000000000000000000000000000000000000000000000000000000000000000020000000000000000000000004200000000000000000000000000000000000006000000000000000000000000833589fcd6edb6e08f4c7c32d4f71b54bda0291300000000000000000000000000000000000000000000000000000000000000010000000000000000000000000000000000000000000000000000000000000064",
        "nonce": "0x328",
        "chainId": "0x2105"
      },
      "additionalContracts": [],
      "isFixedGasLimit": false
    },
    {
      "hash": "0xfbc85a5d793f1c2651bfcdfb638bf2eab99eb27d1fff0575c89b0497ea1c3b50",
      "transactionType": "CALL",
      "contractName": "UniversalAerodromeAdapter",
      "contractAddress": "0x87f8d14a8796b22116d267cfe9a57e986f207468",
      "function": "setPath(address[],int24[])",
      "arguments": [
        "[0x3e8707557D4aD25d6042f590bCF8A06071Da2c5F, 0xc9ae3B5673341859D3aC55941D27C8Be4698C9e4]",
        "[1]"
      ],
      "transaction": {
        "from": "0x33eb4dea4931e5d607531fb08bd393944aa01faa",
        "to": "0x87f8d14a8796b22116d267cfe9a57e986f207468",
        "gas": "0x20ee6",
        "value": "0x0",
        "input": "0xb1ecca94000000000000000000000000000000000000000000000000000000000000004000000000000000000000000000000000000000000000000000000000000000a000000000000000000000000000000000000000000000000000000000000000020000000000000000000000003e8707557d4ad25d6042f590bcf8a06071da2c5f000000000000000000000000c9ae3b5673341859d3ac55941d27c8be4698c9e400000000000000000000000000000000000000000000000000000000000000010000000000000000000000000000000000000000000000000000000000000001",
        "nonce": "0x329",
        "chainId": "0x2105"
      },
      "additionalContracts": [],
      "isFixedGasLimit": false
    },
    {
      "hash": "0x5ffdd4bc02b4643ab2db5eb1b44dec5e720573db15f2fcdb27654d7a962f277f",
      "transactionType": "CALL",
      "contractName": "UniversalAerodromeAdapter",
      "contractAddress": "0x87f8d14a8796b22116d267cfe9a57e986f207468",
      "function": "setPath(address[],int24[])",
      "arguments": [
        "[0xc9ae3B5673341859D3aC55941D27C8Be4698C9e4, 0x3e8707557D4aD25d6042f590bCF8A06071Da2c5F]",
        "[1]"
      ],
      "transaction": {
        "from": "0x33eb4dea4931e5d607531fb08bd393944aa01faa",
        "to": "0x87f8d14a8796b22116d267cfe9a57e986f207468",
        "gas": "0x20ee6",
        "value": "0x0",
        "input": "0xb1ecca94000000000000000000000000000000000000000000000000000000000000004000000000000000000000000000000000000000000000000000000000000000a00000000000000000000000000000000000000000000000000000000000000002000000000000000000000000c9ae3b5673341859d3ac55941d27c8be4698c9e40000000000000000000000003e8707557d4ad25d6042f590bcf8a06071da2c5f00000000000000000000000000000000000000000000000000000000000000010000000000000000000000000000000000000000000000000000000000000001",
        "nonce": "0x32a",
        "chainId": "0x2105"
      },
      "additionalContracts": [],
      "isFixedGasLimit": false
    },
    {
      "hash": "0x54830449d8e6d30ddf7c2aa9f1b418259cbda0103e938ff6428c0c4550f60230",
      "transactionType": "CALL",
      "contractName": "UniversalAerodromeAdapter",
      "contractAddress": "0x87f8d14a8796b22116d267cfe9a57e986f207468",
      "function": "renounceRole(bytes32,address)",
      "arguments": [
        "0x241ecf16d79d0f8dbfb92cbc07fe17840425976cf0667f022fe9877caa831b08",
        "0x33EB4dEa4931e5d607531Fb08Bd393944aA01Faa"
      ],
      "transaction": {
        "from": "0x33eb4dea4931e5d607531fb08bd393944aa01faa",
        "to": "0x87f8d14a8796b22116d267cfe9a57e986f207468",
        "gas": "0x8671",
        "value": "0x0",
        "input": "0x36568abe241ecf16d79d0f8dbfb92cbc07fe17840425976cf0667f022fe9877caa831b0800000000000000000000000033eb4dea4931e5d607531fb08bd393944aa01faa",
        "nonce": "0x32b",
        "chainId": "0x2105"
      },
      "additionalContracts": [],
      "isFixedGasLimit": false
    },
    {
      "hash": "0xd3afe79bd36020a049cd068675055d75935749c43f07eafdd24f141c647042be",
      "transactionType": "CALL",
      "contractName": "UniversalAerodromeAdapter",
      "contractAddress": "0x87f8d14a8796b22116d267cfe9a57e986f207468",
      "function": "renounceRole(bytes32,address)",
      "arguments": [
        "0x0000000000000000000000000000000000000000000000000000000000000000",
        "0x33EB4dEa4931e5d607531Fb08Bd393944aA01Faa"
      ],
      "transaction": {
        "from": "0x33eb4dea4931e5d607531fb08bd393944aa01faa",
        "to": "0x87f8d14a8796b22116d267cfe9a57e986f207468",
        "gas": "0x845f",
        "value": "0x0",
        "input": "0x36568abe000000000000000000000000000000000000000000000000000000000000000000000000000000000000000033eb4dea4931e5d607531fb08bd393944aa01faa",
        "nonce": "0x32c",
        "chainId": "0x2105"
      },
      "additionalContracts": [],
      "isFixedGasLimit": false
    },
    {
      "hash": "0x575383e56731068b0d724686261e91d8d38200c2ff3cbc65d8846bd99fd46933",
      "transactionType": "CREATE",
      "contractName": "DeployUniversalAerodromeAdapterGuardianPayload",
      "contractAddress": "0x8e269a45ad61a08c74e1ab3587821705a5b07eea",
      "function": null,
      "arguments": null,
      "transaction": {
        "from": "0x33eb4dea4931e5d607531fb08bd393944aa01faa",
        "gas": "0xf3512",
        "value": "0x0",
        "input": "0x608060405234801561001057600080fd5b50610cf3806100206000396000f3fe608060405234801561001057600080fd5b50600436106101a25760003560e01c80637729ab9c116100ee578063d113cf0711610097578063e8dd7fc311610071578063e8dd7fc314610405578063eda4c6bc14610420578063fc4dcacb1461043b578063fde017e11461045057600080fd5b8063d113cf07146103b4578063d44c3297146103cf578063db37bab4146103ea57600080fd5b80637b634ec0116100c85780637b634ec01461036357806384e82ff61461037e5780639018b8d01461039957600080fd5b80637729ab9c146103155780637a7d10b11461032d5780637aef40261461034857600080fd5b8063488b1d1f11610150578063604c96061161012a578063604c9606146102c457806362827c91146102df578063700d85ae146102fa57600080fd5b8063488b1d1f146102735780635250f1e41461028e5780635aa02e2e146102a957600080fd5b806315cb51ce1161018157806315cb51ce146102225780631ea542941461023d5780632784c2c81461025857600080fd5b80626e9231146101a75780630d97b466146101ec5780630f597e8914610207575b600080fd5b6101c273d9aaec86b65d86f6a7b5b1b0c42ffa531710b6ca81565b60405173ffffffffffffffffffffffffffffffffffffffff90911681526020015b60405180910390f35b6101c27391ac2fff8cbef5859eaa6dda661febd533cd378081565b6101c273833589fcd6edb6e08f4c7c32d4f71b54bda0291381565b6101c273420dd381b31aef6683db6b902084cb0ffece40da81565b6101c273420000000000000000000000000000000000000681565b6101c273a1b5f2cc9b407177cd8a4acf1699fa0b99955a2281565b6101c2736cfc78c96f87e522ebfdf86995609414cfb1dcb281565b6101c273c9ae3b5673341859d3ac55941d27c8be4698c9e481565b6101c273639d2dd24304ac2e6a691d8c1cff4a2665925fee81565b6101c2733e8707557d4ad25d6042f590bcf8a06071da2c5f81565b6101c273b4d5e163738682a955404737f88fdcf15c1391bf81565b6101c273e314ae9d279919a00d4773cce37946a98faddabc81565b61031f620f424081565b6040519081526020016101e3565b6101c273c1cba3fcea344f92d9239c08c0568f6f2f0ee45281565b6101c273982f3a0e3183896f9970b8a9ea6b69cd53af108981565b6101c27327076a995387458da63b23d9afe3df851727a8db81565b6101c2733800da378e17a5b8d07d0144c32116359147597781565b6101c2732ae3f1ec7f1f5012cfeab0185bfc7aa3cf0dec2281565b6101c2730e02eb705be325407707662c6f6d3466e939f3a081565b6101c273d815218fa8c9bd605c2b048f26cd374a752caa7681565b6101c273cf77a3ba9a5ca399b7c97c74d54e5b1beb874e4381565b6101c2736cb442acf35158d5eda88fe602221b67b400be3e81565b6101c27371041dddad3595f9ced3dccfbe3d1f4b0a16bb7081565b61044e610449366004610ba8565b61046b565b005b6101c273c3e17cdac7c6ed317f0d9845d47df1a281b5f79e81565b3373a1b5f2cc9b407177cd8a4acf1699fa0b99955a22148015906104a357503373639d2dd24304ac2e6a691d8c1cff4a2665925fee14155b156104da576040517fea8e4eb500000000000000000000000000000000000000000000000000000000815260040160405180910390fd5b61052673e314ae9d279919a00d4773cce37946a98faddabc73c9ae3b5673341859d3ac55941d27c8be4698c9e4734200000000000000000000000000000000000006848661271061061d565b61057273e314ae9d279919a00d4773cce37946a98faddabc733e8707557d4ad25d6042f590bcf8a06071da2c5f73833589fcd6edb6e08f4c7c32d4f71b54bda029138486619c4061061d565b6040517f36568abe0000000000000000000000000000000000000000000000000000000081527f241ecf16d79d0f8dbfb92cbc07fe17840425976cf0667f022fe9877caa831b08600482018190523060248301529073e314ae9d279919a00d4773cce37946a98faddabc906336568abe90604401600060405180830381600087803b15801561060057600080fd5b505af1158015610614573d6000803e3d6000fd5b50505050505050565b60008573ffffffffffffffffffffffffffffffffffffffff16636f307dc36040518163ffffffff1660e01b8152600401602060405180830381865afa15801561066a573d6000803e3d6000fd5b505050506040513d601f19601f8201168201806040525081019061068e9190610be1565b6040805160028082526060820190925291925060009190816020015b60408051606081018252600080825260208083018290529282015282527fffffffffffffffffffffffffffffffffffffffffffffffffffffffffffffffff9092019101816106aa57905050905060405180606001604052808873ffffffffffffffffffffffffffffffffffffffff1681526020018373ffffffffffffffffffffffffffffffffffffffff1681526020018673ffffffffffffffffffffffffffffffffffffffff168152508160008151811061076757610767610c05565b602002602001018190525060405180606001604052808373ffffffffffffffffffffffffffffffffffffffff1681526020018773ffffffffffffffffffffffffffffffffffffffff1681526020018573ffffffffffffffffffffffffffffffffffffffff16815250816001815181106107e2576107e2610c05565b602090810291909101015260408051600280825260608201909252600091816020015b60408051606081018252600080825260208083018290529282015282527fffffffffffffffffffffffffffffffffffffffffffffffffffffffffffffffff90920191018161080557905050905060405180606001604052808873ffffffffffffffffffffffffffffffffffffffff1681526020018473ffffffffffffffffffffffffffffffffffffffff1681526020018673ffffffffffffffffffffffffffffffffffffffff16815250816000815181106108c2576108c2610c05565b602002602001018190525060405180606001604052808473ffffffffffffffffffffffffffffffffffffffff1681526020018973ffffffffffffffffffffffffffffffffffffffff1681526020018773ffffffffffffffffffffffffffffffffffffffff168152508160018151811061093d5761093d610c05565b60209081029190910101526040517f2b77d7e700000000000000000000000000000000000000000000000000000000815273ffffffffffffffffffffffffffffffffffffffff8a1690632b77d7e79061099e908b908b908790600401610c34565b600060405180830381600087803b1580156109b857600080fd5b505af11580156109cc573d6000803e3d6000fd5b50506040517f184e92c900000000000000000000000000000000000000000000000000000000815273ffffffffffffffffffffffffffffffffffffffff8b811660048301528a81166024830152604482018890528c16925063184e92c99150606401600060405180830381600087803b158015610a4857600080fd5b505af1158015610a5c573d6000803e3d6000fd5b50506040517f2b77d7e700000000000000000000000000000000000000000000000000000000815273ffffffffffffffffffffffffffffffffffffffff8c169250632b77d7e79150610ab6908a908c908690600401610c34565b600060405180830381600087803b158015610ad057600080fd5b505af1158015610ae4573d6000803e3d6000fd5b50506040517f184e92c900000000000000000000000000000000000000000000000000000000815273ffffffffffffffffffffffffffffffffffffffff8a811660048301528b81166024830152604482018890528c16925063184e92c99150606401600060405180830381600087803b158015610b6057600080fd5b505af1158015610b74573d6000803e3d6000fd5b50505050505050505050505050565b73ffffffffffffffffffffffffffffffffffffffff81168114610ba557600080fd5b50565b60008060408385031215610bbb57600080fd5b8235610bc681610b83565b91506020830135610bd681610b83565b809150509250929050565b600060208284031215610bf357600080fd5b8151610bfe81610b83565b9392505050565b7f4e487b7100000000000000000000000000000000000000000000000000000000600052603260045260246000fd5b6000606080830173ffffffffffffffffffffffffffffffffffffffff808816855260208188168187015260408481880152838851808652608089019150838a01955060005b81811015610cac578651805187168452858101518716868501528401518616848401529584019591870191600101610c79565b50909b9a505050505050505050505056fea2646970667358221220b933aa5124bd76493c52e6029533366b018299e173095f5250d7eb99e53ee28864736f6c63430008150033",
        "nonce": "0x32d",
        "chainId": "0x2105"
      },
      "additionalContracts": [],
      "isFixedGasLimit": false
    }
  ],
  "receipts": [
    {
      "status": "0x1",
      "cumulativeGasUsed": "0xc5c8fe",
      "logs": [
        {
          "address": "0x87f8d14a8796b22116d267cfe9a57e986f207468",
          "topics": [
            "0x2f8788117e7eff1d82e926ec794901d17c78024a50270940304540a733656f0d",
            "0x0000000000000000000000000000000000000000000000000000000000000000",
            "0x00000000000000000000000033eb4dea4931e5d607531fb08bd393944aa01faa",
            "0x00000000000000000000000033eb4dea4931e5d607531fb08bd393944aa01faa"
          ],
          "data": "0x",
          "blockHash": "0xca1942befa988b02599c49e2c6271bc5755429168cdd9a3c2b661e65679d09dc",
          "blockNumber": "0x1024e76",
          "transactionHash": "0x1b3ef631d9fe553c3051c32f64dc2dada0a362da4ebfbd57fa720c6943033d61",
          "transactionIndex": "0x45",
          "logIndex": "0x100",
          "removed": false
        },
        {
          "address": "0x87f8d14a8796b22116d267cfe9a57e986f207468",
          "topics": [
            "0x2f8788117e7eff1d82e926ec794901d17c78024a50270940304540a733656f0d",
            "0x724f6a44d576143e18c60911798b2b15551ca96bd8f7cb7524b8fa36253a26d8",
            "0x000000000000000000000000e314ae9d279919a00d4773cce37946a98faddabc",
            "0x00000000000000000000000033eb4dea4931e5d607531fb08bd393944aa01faa"
          ],
          "data": "0x",
          "blockHash": "0xca1942befa988b02599c49e2c6271bc5755429168cdd9a3c2b661e65679d09dc",
          "blockNumber": "0x1024e76",
          "transactionHash": "0x1b3ef631d9fe553c3051c32f64dc2dada0a362da4ebfbd57fa720c6943033d61",
          "transactionIndex": "0x45",
          "logIndex": "0x101",
          "removed": false
        }
      ],
      "logsBloom": "0x00000004000100000000000000000000000000000000000000000000000000000000000000000000000008000000000000000000000000000000001000000000000000000000000000000000000000000000000000000000000000000000000000000000020000000180000000000800002000000000000000000001000000000000000000000000000000000000000000000000000000000000002000000000000000000000000000000020000000000002000000000000001000000000000000000000000000000000000000000000000000000000000100000000000020000000000000000000800000000000000000000000000000000000000000000000",
      "type": "0x2",
      "transactionHash": "0x1b3ef631d9fe553c3051c32f64dc2dada0a362da4ebfbd57fa720c6943033d61",
      "transactionIndex": "0x45",
      "blockHash": "0xca1942befa988b02599c49e2c6271bc5755429168cdd9a3c2b661e65679d09dc",
      "blockNumber": "0x1024e76",
      "gasUsed": "0x16c50c",
      "effectiveGasPrice": "0x493e6a",
      "from": "0x33eb4dea4931e5d607531fb08bd393944aa01faa",
      "to": null,
      "contractAddress": "0x87f8d14a8796b22116d267cfe9a57e986f207468",
      "l1BaseFeeScalar": "0x8dd",
      "l1BlobBaseFee": "0x1",
      "l1BlobBaseFeeScalar": "0x101c12",
      "l1Fee": "0x7197e20019",
      "l1GasPrice": "0xe7929640",
      "l1GasUsed": "0xd830"
    },
    {
      "status": "0x1",
      "cumulativeGasUsed": "0x102a218",
      "logs": [
        {
          "address": "0x87f8d14a8796b22116d267cfe9a57e986f207468",
          "topics": [
            "0x2f8788117e7eff1d82e926ec794901d17c78024a50270940304540a733656f0d",
            "0x241ecf16d79d0f8dbfb92cbc07fe17840425976cf0667f022fe9877caa831b08",
            "0x00000000000000000000000033eb4dea4931e5d607531fb08bd393944aa01faa",
            "0x00000000000000000000000033eb4dea4931e5d607531fb08bd393944aa01faa"
          ],
          "data": "0x",
          "blockHash": "0x4a0acf1ee0f98a50ea76c8c3eaafc80ba0b7f90e8765f41de6d7a494e0c8e355",
          "blockNumber": "0x1024e79",
          "transactionHash": "0xa4d046386249b9b17e9b0e34d88a9b3963af5458231dcb9ba59900c6357ee7af",
          "transactionIndex": "0x3e",
          "logIndex": "0xa3",
          "removed": false
        }
      ],
      "logsBloom": "0x00000004000100000000000000000000000000000000000000000000000000000000000000000000000000000000000000000000000000000000001000000000000000000020000000000000000000000000000000000000000000000000000000000000000000000004000000000000002000000000000000000000000000000000000000000000000000000000000000000000000000000000000000000000000000000000000000000020000000000000000000000000001000000000000000000000000000000000020000000000000000000000000100000000000020000000000000000000800000000000000000000000000000000000000000000000",
      "type": "0x2",
      "transactionHash": "0xa4d046386249b9b17e9b0e34d88a9b3963af5458231dcb9ba59900c6357ee7af",
      "transactionIndex": "0x3e",
      "blockHash": "0x4a0acf1ee0f98a50ea76c8c3eaafc80ba0b7f90e8765f41de6d7a494e0c8e355",
      "blockNumber": "0x1024e79",
      "gasUsed": "0xc871",
      "effectiveGasPrice": "0x4937a1",
      "from": "0x33eb4dea4931e5d607531fb08bd393944aa01faa",
      "to": "0x87f8d14a8796b22116d267cfe9a57e986f207468",
      "contractAddress": null,
      "l1BaseFeeScalar": "0x8dd",
      "l1BlobBaseFee": "0x1",
      "l1BlobBaseFeeScalar": "0x101c12",
      "l1Fee": "0x384cb2e1e",
      "l1GasPrice": "0xe7929640",
      "l1GasUsed": "0x6b2"
    },
    {
      "status": "0x1",
      "cumulativeGasUsed": "0xb7584c",
      "logs": [
        {
          "address": "0x87f8d14a8796b22116d267cfe9a57e986f207468",
          "topics": [
            "0x2f8788117e7eff1d82e926ec794901d17c78024a50270940304540a733656f0d",
            "0x241ecf16d79d0f8dbfb92cbc07fe17840425976cf0667f022fe9877caa831b08",
            "0x000000000000000000000000639d2dd24304ac2e6a691d8c1cff4a2665925fee",
            "0x00000000000000000000000033eb4dea4931e5d607531fb08bd393944aa01faa"
          ],
          "data": "0x",
          "blockHash": "0x3764b26fd98f41b9f3453cde58ec5a00c849c3a00979b8085d33bfdb479448bc",
          "blockNumber": "0x1024e7d",
          "transactionHash": "0x6c318cc9585a93c325a1b5618b053d2f0c15bbd21acc0253625054592540450c",
          "transactionIndex": "0x24",
          "logIndex": "0x76",
          "removed": false
        }
      ],
      "logsBloom": "0x00000004000100000000000000000000000000000000000000000000000000000000000000000000000000000000000000000000000000000000001000800000000000000020000000000000100000000000000000000000000000000000000000000000000000000014000000000000002000000000000000000000000000000000000000000000000000000000000000000000000000000000000000000000000000000000000000000020000000000000000000000000001000000000000000000000000000000000020000000000000000000000000100000000000020000000000000000000800000000000000000000000000000000000000000000000",
      "type": "0x2",
      "transactionHash": "0x6c318cc9585a93c325a1b5618b053d2f0c15bbd21acc0253625054592540450c",
      "transactionIndex": "0x24",
      "blockHash": "0x3764b26fd98f41b9f3453cde58ec5a00c849c3a00979b8085d33bfdb479448bc",
      "blockNumber": "0x1024e7d",
      "gasUsed": "0xc871",
      "effectiveGasPrice": "0x492ee8",
      "from": "0x33eb4dea4931e5d607531fb08bd393944aa01faa",
      "to": "0x87f8d14a8796b22116d267cfe9a57e986f207468",
      "contractAddress": null,
      "l1BaseFeeScalar": "0x8dd",
      "l1BlobBaseFee": "0x1",
      "l1BlobBaseFeeScalar": "0x101c12",
      "l1Fee": "0x36f942e6b",
      "l1GasPrice": "0xe21e680b",
      "l1GasUsed": "0x6b2"
    },
    {
      "status": "0x1",
      "cumulativeGasUsed": "0xf820e3",
      "logs": [
        {
          "address": "0x87f8d14a8796b22116d267cfe9a57e986f207468",
          "topics": [
            "0x2f8788117e7eff1d82e926ec794901d17c78024a50270940304540a733656f0d",
            "0x241ecf16d79d0f8dbfb92cbc07fe17840425976cf0667f022fe9877caa831b08",
            "0x000000000000000000000000a1b5f2cc9b407177cd8a4acf1699fa0b99955a22",
            "0x00000000000000000000000033eb4dea4931e5d607531fb08bd393944aa01faa"
          ],
          "data": "0x",
          "blockHash": "0x6e131104dd97315867bec3074aa6216b71e5e4417b39a38d4d01fb22d262563a",
          "blockNumber": "0x1024e81",
          "transactionHash": "0xe1dc44cbd280584077793e3076907da25cf7ccde67c0584f017b8ce2a631112f",
          "transactionIndex": "0x47",
          "logIndex": "0x130",
          "removed": false
        }
      ],
      "logsBloom": "0x00000004000100000200000000000000000000000000000000000000000000000000000000000000000000000000000000000000000000000000001000000000000000000020100000000000000000000000000000000000000000000000000000000000000000000004000000000000002000000000000000000000000000000000000000000000000000000000000000000000000000000000000000000000000000000000000000000020000000000000000000000000001000000000000000000000000000000000020000000000000000000000000100000000000020000000004000000000800000000000000000000000000000000000000000000000",
      "type": "0x2",
      "transactionHash": "0xe1dc44cbd280584077793e3076907da25cf7ccde67c0584f017b8ce2a631112f",
      "transactionIndex": "0x47",
      "blockHash": "0x6e131104dd97315867bec3074aa6216b71e5e4417b39a38d4d01fb22d262563a",
      "blockNumber": "0x1024e81",
      "gasUsed": "0xc871",
      "effectiveGasPrice": "0x490d2f",
      "from": "0x33eb4dea4931e5d607531fb08bd393944aa01faa",
      "to": "0x87f8d14a8796b22116d267cfe9a57e986f207468",
      "contractAddress": null,
      "l1BaseFeeScalar": "0x8dd",
      "l1BlobBaseFee": "0x1",
      "l1BlobBaseFeeScalar": "0x101c12",
      "l1Fee": "0x335d1a8bc",
      "l1GasPrice": "0xd34524c3",
      "l1GasUsed": "0x6b2"
    },
    {
      "status": "0x1",
      "cumulativeGasUsed": "0xd0f075",
      "logs": [
        {
          "address": "0x87f8d14a8796b22116d267cfe9a57e986f207468",
          "topics": [
            "0x2f8788117e7eff1d82e926ec794901d17c78024a50270940304540a733656f0d",
            "0x0000000000000000000000000000000000000000000000000000000000000000",
            "0x000000000000000000000000639d2dd24304ac2e6a691d8c1cff4a2665925fee",
            "0x00000000000000000000000033eb4dea4931e5d607531fb08bd393944aa01faa"
          ],
          "data": "0x",
          "blockHash": "0x298f20cbc2a2d2ae70462dbf410b1f0ef87168ffe88731c8dfb8511269656f73",
          "blockNumber": "0x1024e85",
          "transactionHash": "0xc872e5c53a9a5ce4740253f551788bc27a20b0c1f5166411bae3d3cc43ba9451",
          "transactionIndex": "0x49",
          "logIndex": "0xec",
          "removed": false
        }
      ],
      "logsBloom": "0x00000004000100000000000000000000000000000000000000000000000000000000000000000000000000000000000000000000000000000000001000800000000000000000000000000000100000000000000000000000000000000000000000000000020000000010000000000800002000000000000000000000000000000000000000000000000000000000000000000000000000000000000000000000000000000000000000000020000000000000000000000000001000000000000000000000000000000000000000000000000000000000000100000000000020000000000000000000800000000000000000000000000000000000000000000000",
      "type": "0x2",
      "transactionHash": "0xc872e5c53a9a5ce4740253f551788bc27a20b0c1f5166411bae3d3cc43ba9451",
      "transactionIndex": "0x49",
      "blockHash": "0x298f20cbc2a2d2ae70462dbf410b1f0ef87168ffe88731c8dfb8511269656f73",
      "blockNumber": "0x1024e85",
      "gasUsed": "0xc6f1",
      "effectiveGasPrice": "0x491c08",
      "from": "0x33eb4dea4931e5d607531fb08bd393944aa01faa",
      "to": "0x87f8d14a8796b22116d267cfe9a57e986f207468",
      "contractAddress": null,
      "l1BaseFeeScalar": "0x8dd",
      "l1BlobBaseFee": "0x1",
      "l1BlobBaseFeeScalar": "0x101c12",
      "l1Fee": "0x2fefeb4f9",
      "l1GasPrice": "0xd34524c3",
      "l1GasUsed": "0x640"
    },
    {
      "status": "0x1",
      "cumulativeGasUsed": "0xcee15b",
      "logs": [
        {
          "address": "0x87f8d14a8796b22116d267cfe9a57e986f207468",
          "topics": [
            "0x2f8788117e7eff1d82e926ec794901d17c78024a50270940304540a733656f0d",
            "0x0000000000000000000000000000000000000000000000000000000000000000",
            "0x000000000000000000000000a1b5f2cc9b407177cd8a4acf1699fa0b99955a22",
            "0x00000000000000000000000033eb4dea4931e5d607531fb08bd393944aa01faa"
          ],
          "data": "0x",
          "blockHash": "0xa29bffe71668bdb34701d66675e7c594d85a9c44b8ded543409d5edd4ff26afe",
          "blockNumber": "0x1024e88",
          "transactionHash": "0x4579f838d9ab89519902e968d8561275f4b38f5e170173e32aa2fbaba85fdf4c",
          "transactionIndex": "0x43",
          "logIndex": "0xbd",
          "removed": false
        }
      ],
      "logsBloom": "0x00000004000100000200000000000000000000000000000000000000000000000000000000000000000000000000000000000000000000000000001000000000000000000000100000000000000000000000000000000000000000000000000000000000020000000000000000000800002000000000000000000000000000000000000000000000000000000000000000000000000000000000000000000000000000000000000000000020000000000000000000000000001000000000000000000000000000000000000000000000000000000000000100000000000020000000004000000000800000000000000000000000000000000000000000000000",
      "type": "0x2",
      "transactionHash": "0x4579f838d9ab89519902e968d8561275f4b38f5e170173e32aa2fbaba85fdf4c",
      "transactionIndex": "0x43",
      "blockHash": "0xa29bffe71668bdb34701d66675e7c594d85a9c44b8ded543409d5edd4ff26afe",
      "blockNumber": "0x1024e88",
      "gasUsed": "0xc6f1",
      "effectiveGasPrice": "0x48f96d",
      "from": "0x33eb4dea4931e5d607531fb08bd393944aa01faa",
      "to": "0x87f8d14a8796b22116d267cfe9a57e986f207468",
      "contractAddress": null,
      "l1BaseFeeScalar": "0x8dd",
      "l1BlobBaseFee": "0x1",
      "l1BlobBaseFeeScalar": "0x101c12",
      "l1Fee": "0x334824f58",
      "l1GasPrice": "0xe202b91d",
      "l1GasUsed": "0x640"
    },
    {
      "status": "0x1",
      "cumulativeGasUsed": "0x9f7dc2",
      "logs": [
        {
          "address": "0x87f8d14a8796b22116d267cfe9a57e986f207468",
          "topics": [
            "0x0f0abd9687d6f21e88cad01a785b2dce7080f1f0b706ca834de4633bfb48ecc1"
          ],
          "data": "0x000000000000000000000000833589fcd6edb6e08f4c7c32d4f71b54bda0291300000000000000000000000042000000000000000000000000000000000000060000000000000000000000000000000000000000000000000000000000000060000000000000000000000000000000000000000000000000000000000000002b833589fcd6edb6e08f4c7c32d4f71b54bda029130000644200000000000000000000000000000000000006000000000000000000000000000000000000000000",
          "blockHash": "0x7d741a6b21b3d00165a318a793d284d24a52bc0911923899511347b2d77dab6c",
          "blockNumber": "0x1024e8c",
          "transactionHash": "0x7fa9c197a83790c5d348757cd326fedcfc6dbbd30533ad714296520cc016f957",
          "transactionIndex": "0x2b",
          "logIndex": "0xd1",
          "removed": false
        }
      ],
      "logsBloom": "0x00000000000000000000000000000000000000000000000000000000000000000000000000000000000000000000000000000000000000000000001000000000000000000000000000000000000000000000000000000000000000000000000000000000000000000000000000000000002000000000000000000000000000000000800000000000000000000000000000000000000000000000000000000000000000000000000000000000000000000000000000000000004000000000000000000000000000000000000000000000000000000000000000000000000020000000000000000000000000000000000000000000000004000000000000000000",
      "type": "0x2",
      "transactionHash": "0x7fa9c197a83790c5d348757cd326fedcfc6dbbd30533ad714296520cc016f957",
      "transactionIndex": "0x2b",
      "blockHash": "0x7d741a6b21b3d00165a318a793d284d24a52bc0911923899511347b2d77dab6c",
      "blockNumber": "0x1024e8c",
      "gasUsed": "0x17ca0",
      "effectiveGasPrice": "0x48c68b",
      "from": "0x33eb4dea4931e5d607531fb08bd393944aa01faa",
      "to": "0x87f8d14a8796b22116d267cfe9a57e986f207468",
      "contractAddress": null,
      "l1BaseFeeScalar": "0x8dd",
      "l1BlobBaseFee": "0x1",
      "l1BlobBaseFeeScalar": "0x101c12",
      "l1Fee": "0x3c185589e",
      "l1GasPrice": "0xe202b91d",
      "l1GasUsed": "0x752"
    },
    {
      "status": "0x1",
      "cumulativeGasUsed": "0xe484d6",
      "logs": [
        {
          "address": "0x87f8d14a8796b22116d267cfe9a57e986f207468",
          "topics": [
            "0x0f0abd9687d6f21e88cad01a785b2dce7080f1f0b706ca834de4633bfb48ecc1"
          ],
          "data": "0x0000000000000000000000004200000000000000000000000000000000000006000000000000000000000000833589fcd6edb6e08f4c7c32d4f71b54bda029130000000000000000000000000000000000000000000000000000000000000060000000000000000000000000000000000000000000000000000000000000002b4200000000000000000000000000000000000006000064833589fcd6edb6e08f4c7c32d4f71b54bda02913000000000000000000000000000000000000000000",
          "blockHash": "0x17eaddb7d8bdf06e15b8ddb835c261ce0e56d62fb66f5b17b9a443bbcb774444",
          "blockNumber": "0x1024e8f",
          "transactionHash": "0xa5d5810378ec2f176abdd2abad67b867c93081adff70a26b7406501e739eb22a",
          "transactionIndex": "0x35",
          "logIndex": "0xc1",
          "removed": false
        }
      ],
      "logsBloom": "0x00000000000000000000000000000000000000000000000000000000000000000000000000000000000000000000000000000000000000000000001000000000000000000000000000000000000000000000000000000000000000000000000000000000000000000000000000000000002000000000000000000000000000000000800000000000000000000000000000000000000000000000000000000000000000000000000000000000000000000000000000000000004000000000000000000000000000000000000000000000000000000000000000000000000020000000000000000000000000000000000000000000000004000000000000000000",
      "type": "0x2",
      "transactionHash": "0xa5d5810378ec2f176abdd2abad67b867c93081adff70a26b7406501e739eb22a",
      "transactionIndex": "0x35",
      "blockHash": "0x17eaddb7d8bdf06e15b8ddb835c261ce0e56d62fb66f5b17b9a443bbcb774444",
      "blockNumber": "0x1024e8f",
      "gasUsed": "0x17ca0",
      "effectiveGasPrice": "0x48aead",
      "from": "0x33eb4dea4931e5d607531fb08bd393944aa01faa",
      "to": "0x87f8d14a8796b22116d267cfe9a57e986f207468",
      "contractAddress": null,
      "l1BaseFeeScalar": "0x8dd",
      "l1BlobBaseFee": "0x1",
      "l1BlobBaseFeeScalar": "0x101c12",
      "l1Fee": "0x3b9c522a2",
      "l1GasPrice": "0xde998c36",
      "l1GasUsed": "0x760"
    },
    {
      "status": "0x1",
      "cumulativeGasUsed": "0x7e0fce",
      "logs": [
        {
          "address": "0x87f8d14a8796b22116d267cfe9a57e986f207468",
          "topics": [
            "0x0f0abd9687d6f21e88cad01a785b2dce7080f1f0b706ca834de4633bfb48ecc1"
          ],
          "data": "0x0000000000000000000000003e8707557d4ad25d6042f590bcf8a06071da2c5f000000000000000000000000c9ae3b5673341859d3ac55941d27c8be4698c9e40000000000000000000000000000000000000000000000000000000000000060000000000000000000000000000000000000000000000000000000000000002b3e8707557d4ad25d6042f590bcf8a06071da2c5f000001c9ae3b5673341859d3ac55941d27c8be4698c9e4000000000000000000000000000000000000000000",
          "blockHash": "0x1fdaed5e7e8836002d5d8e136c2de812cc5e691aae7caf5395db242cb929bafd",
          "blockNumber": "0x1024e93",
          "transactionHash": "0xfbc85a5d793f1c2651bfcdfb638bf2eab99eb27d1fff0575c89b0497ea1c3b50",
          "transactionIndex": "0x34",
          "logIndex": "0xe6",
          "removed": false
        }
      ],
      "logsBloom": "0x00000000000000000000000000000000000000000000000000000000000000000000000000000000000000000000000000000000000000000000001000000000000000000000000000000000000000000000000000000000000000000000000000000000000000000000000000000000002000000000000000000000000000000000800000000000000000000000000000000000000000000000000000000000000000000000000000000000000000000000000000000000004000000000000000000000000000000000000000000000000000000000000000000000000020000000000000000000000000000000000000000000000004000000000000000000",
      "type": "0x2",
      "transactionHash": "0xfbc85a5d793f1c2651bfcdfb638bf2eab99eb27d1fff0575c89b0497ea1c3b50",
      "transactionIndex": "0x34",
      "blockHash": "0x1fdaed5e7e8836002d5d8e136c2de812cc5e691aae7caf5395db242cb929bafd",
      "blockNumber": "0x1024e93",
      "gasUsed": "0x17d78",
      "effectiveGasPrice": "0x48afe1",
      "from": "0x33eb4dea4931e5d607531fb08bd393944aa01faa",
      "to": "0x87f8d14a8796b22116d267cfe9a57e986f207468",
      "contractAddress": null,
      "l1BaseFeeScalar": "0x8dd",
      "l1BlobBaseFee": "0x1",
      "l1BlobBaseFeeScalar": "0x101c12",
      "l1Fee": "0x411a65653",
      "l1GasPrice": "0xde998c36",
      "l1GasUsed": "0x80e"
    },
    {
      "status": "0x1",
      "cumulativeGasUsed": "0x11e7fca",
      "logs": [
        {
          "address": "0x87f8d14a8796b22116d267cfe9a57e986f207468",
          "topics": [
            "0x0f0abd9687d6f21e88cad01a785b2dce7080f1f0b706ca834de4633bfb48ecc1"
          ],
          "data": "0x000000000000000000000000c9ae3b5673341859d3ac55941d27c8be4698c9e40000000000000000000000003e8707557d4ad25d6042f590bcf8a06071da2c5f0000000000000000000000000000000000000000000000000000000000000060000000000000000000000000000000000000000000000000000000000000002bc9ae3b5673341859d3ac55941d27c8be4698c9e40000013e8707557d4ad25d6042f590bcf8a06071da2c5f000000000000000000000000000000000000000000",
          "blockHash": "0xb5ab69cba4e72d1db4cc0c4174ecbdb83c7f3075f17e1ad591e0ba407725ab77",
          "blockNumber": "0x1024e97",
          "transactionHash": "0x5ffdd4bc02b4643ab2db5eb1b44dec5e720573db15f2fcdb27654d7a962f277f",
          "transactionIndex": "0x5a",
          "logIndex": "0x18a",
          "removed": false
        }
      ],
      "logsBloom": "0x00000000000000000000000000000000000000000000000000000000000000000000000000000000000000000000000000000000000000000000001000000000000000000000000000000000000000000000000000000000000000000000000000000000000000000000000000000000002000000000000000000000000000000000800000000000000000000000000000000000000000000000000000000000000000000000000000000000000000000000000000000000004000000000000000000000000000000000000000000000000000000000000000000000000020000000000000000000000000000000000000000000000004000000000000000000",
      "type": "0x2",
      "transactionHash": "0x5ffdd4bc02b4643ab2db5eb1b44dec5e720573db15f2fcdb27654d7a962f277f",
      "transactionIndex": "0x5a",
      "blockHash": "0xb5ab69cba4e72d1db4cc0c4174ecbdb83c7f3075f17e1ad591e0ba407725ab77",
      "blockNumber": "0x1024e97",
      "gasUsed": "0x17d78",
      "effectiveGasPrice": "0x489484",
      "from": "0x33eb4dea4931e5d607531fb08bd393944aa01faa",
      "to": "0x87f8d14a8796b22116d267cfe9a57e986f207468",
      "contractAddress": null,
      "l1BaseFeeScalar": "0x8dd",
      "l1BlobBaseFee": "0x1",
      "l1BlobBaseFeeScalar": "0x101c12",
      "l1Fee": "0x3fcb62737",
      "l1GasPrice": "0xda20148c",
      "l1GasUsed": "0x80e"
    },
    {
      "status": "0x1",
      "cumulativeGasUsed": "0xf4f308",
      "logs": [
        {
          "address": "0x87f8d14a8796b22116d267cfe9a57e986f207468",
          "topics": [
            "0xf6391f5c32d9c69d2a47ea670b442974b53935d1edc7fd64eb21e047a839171b",
            "0x241ecf16d79d0f8dbfb92cbc07fe17840425976cf0667f022fe9877caa831b08",
            "0x00000000000000000000000033eb4dea4931e5d607531fb08bd393944aa01faa",
            "0x00000000000000000000000033eb4dea4931e5d607531fb08bd393944aa01faa"
          ],
          "data": "0x",
          "blockHash": "0xad9051de14af540c59ca7d4ee9cbb3484a24186c28261bbb2d0a7c337d1943ed",
          "blockNumber": "0x1024e9b",
          "transactionHash": "0x54830449d8e6d30ddf7c2aa9f1b418259cbda0103e938ff6428c0c4550f60230",
          "transactionIndex": "0x53",
          "logIndex": "0x17c",
          "removed": false
        }
      ],
      "logsBloom": "0x00000000000100000000000000000000000000000000000000000000000000000000000000000000000000000000000000200000000000000000001000000000000000000020000000000000000000000000000000000000000000000000000040000000000000000004000000000000002000000000000000000000000000000000000040000000000000000000000000000000000000000000000000000000000000000000000000000020000000000000000000000000000000000000000000000000000000000000020000000000000000000000000000000000000020000000000000000000800000000000000000000000000000000000000000000000",
      "type": "0x2",
      "transactionHash": "0x54830449d8e6d30ddf7c2aa9f1b418259cbda0103e938ff6428c0c4550f60230",
      "transactionIndex": "0x53",
      "blockHash": "0xad9051de14af540c59ca7d4ee9cbb3484a24186c28261bbb2d0a7c337d1943ed",
      "blockNumber": "0x1024e9b",
      "gasUsed": "0x6156",
      "effectiveGasPrice": "0x489331",
      "from": "0x33eb4dea4931e5d607531fb08bd393944aa01faa",
      "to": "0x87f8d14a8796b22116d267cfe9a57e986f207468",
      "contractAddress": null,
      "l1BaseFeeScalar": "0x8dd",
      "l1BlobBaseFee": "0x1",
      "l1BlobBaseFeeScalar": "0x101c12",
      "l1Fee": "0x3184e582b",
      "l1GasPrice": "0xcd4921f1",
      "l1GasUsed": "0x6a4"
    },
    {
      "status": "0x1",
      "cumulativeGasUsed": "0x113070f",
      "logs": [
        {
          "address": "0x87f8d14a8796b22116d267cfe9a57e986f207468",
          "topics": [
            "0xf6391f5c32d9c69d2a47ea670b442974b53935d1edc7fd64eb21e047a839171b",
            "0x0000000000000000000000000000000000000000000000000000000000000000",
            "0x00000000000000000000000033eb4dea4931e5d607531fb08bd393944aa01faa",
            "0x00000000000000000000000033eb4dea4931e5d607531fb08bd393944aa01faa"
          ],
          "data": "0x",
          "blockHash": "0x5972777ba3a60c8f6b16b823b340b471b1e271880b2506f144784b7454c25945",
          "blockNumber": "0x1024e9e",
          "transactionHash": "0xd3afe79bd36020a049cd068675055d75935749c43f07eafdd24f141c647042be",
          "transactionIndex": "0x49",
          "logIndex": "0x1b9",
          "removed": false
        }
      ],
      "logsBloom": "0x00000000000100000000000000000000000000000000000000000000000000000000000000000000000000000000000000200000000000000000001000000000000000000000000000000000000000000000000000000000000000000000000040000000020000000000000000000800002000000000000000000000000000000000000040000000000000000000000000000000000000000000000000000000000000000000000000000020000000000000000000000000000000000000000000000000000000000000000000000000000000000000000000000000000020000000000000000000800000000000000000000000000000000000000000000000",
      "type": "0x2",
      "transactionHash": "0xd3afe79bd36020a049cd068675055d75935749c43f07eafdd24f141c647042be",
      "transactionIndex": "0x49",
      "blockHash": "0x5972777ba3a60c8f6b16b823b340b471b1e271880b2506f144784b7454c25945",
      "blockNumber": "0x1024e9e",
      "gasUsed": "0x5fd6",
      "effectiveGasPrice": "0x48d51e",
      "from": "0x33eb4dea4931e5d607531fb08bd393944aa01faa",
      "to": "0x87f8d14a8796b22116d267cfe9a57e986f207468",
      "contractAddress": null,
      "l1BaseFeeScalar": "0x8dd",
      "l1BlobBaseFee": "0x1",
      "l1BlobBaseFeeScalar": "0x101c12",
      "l1Fee": "0x2e944e4e6",
      "l1GasPrice": "0xcd4921f1",
      "l1GasUsed": "0x640"
    },
    {
      "status": "0x1",
      "cumulativeGasUsed": "0xf54809",
      "logs": [],
      "logsBloom": "0x00000000000000000000000000000000000000000000000000000000000000000000000000000000000000000000000000000000000000000000000000000000000000000000000000000000000000000000000000000000000000000000000000000000000000000000000000000000000000000000000000000000000000000000000000000000000000000000000000000000000000000000000000000000000000000000000000000000000000000000000000000000000000000000000000000000000000000000000000000000000000000000000000000000000000000000000000000000000000000000000000000000000000000000000000000000",
      "type": "0x2",
      "transactionHash": "0x575383e56731068b0d724686261e91d8d38200c2ff3cbc65d8846bd99fd46933",
      "transactionIndex": "0x4b",
      "blockHash": "0x803fc777fa497adb22260ad6354b07eb496cf6958419e352c1d5ee774fb3c614",
      "blockNumber": "0x1024ea1",
      "gasUsed": "0xbb37e",
      "effectiveGasPrice": "0x49022f",
      "from": "0x33eb4dea4931e5d607531fb08bd393944aa01faa",
      "to": null,
      "contractAddress": "0x8e269a45ad61a08c74e1ab3587821705a5b07eea",
      "l1BaseFeeScalar": "0x8dd",
      "l1BlobBaseFee": "0x1",
      "l1BlobBaseFeeScalar": "0x101c12",
      "l1Fee": "0x33bd2ae087",
      "l1GasPrice": "0xd5fff792",
      "l1GasUsed": "0x6a8d"
    }
  ],
  "libraries": [],
  "pending": [],
  "returns": {},
  "timestamp": 1720646221,
  "chain": 8453,
  "commit": "cbc5b0f"
}